:04000000B4EF3FF02A
:107F68000001B7EF3FF0C6EC3FF0FF0EDBEC3FF04F
:107F7800FCD7E8CF01F0FA0E00F0E82EFDD7012E6D
:107F8800FAD71200000E926E000E936E000E946ED9
:107F9800000E956E000E966E000E806E000E816EBD
:107FA800000E826E000E836E000E846E1200E8CF03
:107FB80006F0E80E026E030E036E000E046E000E4D
:107FC800056E000E806E000E816E000E826E000E31
:107FD800836E000E846EE80EBDEC3FF006C080FF95
:107FE80006C081FF06C082FF06C083FF06C084FF6B
:087FF800D00EBDEC3FF01200B9
:020000040020DA
:08000000FFFFFFFFFFFFFFFF00
:020000040030CA
:0E000000040C0E1EFF8181FF0FC00FE00F40A9
:00000001FF
