:020000040000FA
:0400000058EF00F0C5
:100008003482FACF2AF0FBCF2BF0D9CF2CF0DACFFD
:100018002DF0F2AC12EF00F014EF00F04EEF00F00C
:100028009DA819EF00F01BEF00F031EF00F09EA83B
:1000380020EF00F022EF00F031EF00F002D82FEFB0
:1000480000F00500FA6E2750FD6E2850FE6EF8503D
:10005800FF6EFA5012004EEF00F09DAA36EF00F046
:1000680038EF00F04EEF00F09EAA3DEF00F03FEFB2
:1000780000F04EEF00F002D84CEF00F00500FA6EE9
:100088002550FD6E2650FE6EF850FF6EFA50120095
:100098004EEF00F02DC0DAFF2CC0D9FF2BC0FBFFBC
:1000A8002AC0FAFF34921100F9EF01F0010E1C2466
:1000B800D96EDA6A000EDA22000EDF6EABA467EFA3
:1000C80000F069EF00F07DEF00F0010E1C24D96EFE
:1000D800DA6A000EDA22DF8202D87DEF00F005002E
:1000E800FA6E2350FD6E2450FE6EF850FF6EFA50E3
:1000F8001200ABA282EF00F084EF00F098EF00F05E
:10010800010E1C24D96EDA6A000EDA22DF8402D8C6
:1001180098EF00F00500FA6E2150FD6E2250FE6E39
:10012800F850FF6EFA501200010E1C24D96EDA6ADC
:10013800000EDA22DF50D8B4A4EF00F0A6EF00F0EA
:10014800B5EF00F002D8B3EF00F00500FA6E1F50CB
:10015800FD6E2050FE6EF850FF6EFA501200B7EF99
:1001680000F0E4EC01F0120011EC02F0F28EF28CD7
:10017800000E336E010E326E06EC02F00009D8B4A0
:10018800C8EF00F0CAEF00F0CFEF00F032504FECAC
:1001980001F0324A332A7F0E32183310D8A4D7EF31
:1001A80000F0D9EF00F0DDEF00F0000E336E000E26
:1001B800326E8BB0E2EF00F0E5EF00F0010EE6EFF3
:1001C80000F0000EFF0A306E8B503018FE0B30180E
:1001D8008B6E820E306EDE0EE82EFED7302EFCD7E8
:1001E8007AEC01F0316E410E3118D8A4FEEF00F020
:1001F80000EF01F0C0EF00F08BB205EF01F008EF5F
:1002080001F0010E09EF01F0000EFF0A306E3046D2
:100218008B503018FD0B30188B6EC0EF00F058EF84
:1002280000F09D9AB40E2E6E000E2F6E26EC02F092
:100238009D984A0E2E6E030E2F6E21EC02F0080ECA
:10024800B86E900EAB6E240EAC6E080EAF6E000E3C
:10025800B06E840E2E6E040E2F6E30EC02F0740E0B
:100268002E6E040E2F6E2BEC02F07A0E2E6E040EFC
:100278002F6E35EC02F0000E196E000E1E6E000E89
:100288001D6E080E296E000E1C6E000E1B6E000EF1
:100298001A6E9D8A12002E6E2950D8B456EF01F0BE
:1002A80058EF01F050EF01F09DB85DEF01F05FEFFE
:1002B80001F063EF01F02EC0ADFF78EF01F09D98DB
:1002C800110E1E24D96EDA6A000EDA222EC0DFFF64
:1002D8001E2A070E1E6473EF01F075EF01F077EF29
:1002E80001F0000E1E6E29069D8812001A50D8A42F
:1002F80080EF01F082EF01F085EF01F0000EA4EF2E
:1003080001F0010E1B24D96EDA6A000EDA22DF50E2
:10031800196E090E1B24D96EDA6A000EDA22DF5034
:100328002E6E1B2A070E1B649CEF01F09EEF01F056
:10033800A0EF01F0000E1B6E9D9A1A069D8A2E50A2
:100348001200080E2960ABEF01F0ADEF01F0C3EF2A
:1003580001F0110E1D24D96EDA6A000EDA22DF5080
:10036800AD6E1D2A070E1D64BCEF01F0BEEF01F053
:10037800C0EF01F0000E1D6E292AC4EF01F09D9810
:100388001200000E8D6E000E8C6E000E896E000E2F
:100398008A6E000E8B6E070E966E92689368BC0E7E
:1003A800946E95680F013B693C0E3A6F3F0E396FAA
:1003B800070E3C6F2F0E386F000E616EF18E120023
:1003C800090E1C24D96EDA6A000EDA22AECFDFFFDE
:1003D8001C2A070E1C64F3EF01F0F5EF01F0F7EFAC
:1003E80001F0000E1C6E1A2A120000EE01F01E0E1B
:1003F800EE6AE806FDE134903492000EF86E0001D2
:10040800B8EF00F02950D8A40CEF02F00FEF02F07B
:10041800010E10EF02F0000E120040EC02F0C5ECE5
:1004280001F01AEC02F015EC01F01200520ED36E36
:10043800040ED26E000E9B6E12002EC027F02FC045
:1004480028F012002EC025F02FC026F012002EC072
:1004580021F02FC022F012002EC023F02FC024F06C
:1004680012002EC01FF02FC020F01200AB98AB88EE
:0E0478001200E4EC01F01200D09E12001200FF
:020000040020DA
:08000000FFFFFFFFFFFFFFFF00
:020000040030CA
:0E000000FF381F3CFFBF85FF0FC00FE00F4011
:00000001FF
