:020000040000FA
:0400000058EF00F0C5
:100008003382FACF2AF0FBCF2BF0D9CF2CF0DACFFE
:100018002DF0F2AC12EF00F014EF00F04EEF00F00C
:100028009DA819EF00F01BEF00F031EF00F09EA83B
:1000380020EF00F022EF00F031EF00F002D82FEFB0
:1000480000F00500FA6E2550FD6E2650FE6EF85041
:10005800FF6EFA5012004EEF00F09DAA36EF00F046
:1000680038EF00F04EEF00F09EAA3DEF00F03FEFB2
:1000780000F04EEF00F002D84CEF00F00500FA6EE9
:100088002750FD6E2850FE6EF850FF6EFA50120091
:100098004EEF00F02DC0DAFF2CC0D9FF2BC0FBFFBC
:1000A8002AC0FAFF33921100B5EF01F0010E1C24AB
:1000B800D96EDA6A000EDA22000EDF6EABA467EFA3
:1000C80000F069EF00F07DEF00F0010E1C24D96EFE
:1000D800DA6A000EDA22DF8202D87DEF00F005002E
:1000E800FA6E2350FD6E2450FE6EF850FF6EFA50E3
:1000F8001200ABA282EF00F084EF00F098EF00F05E
:10010800010E1C24D96EDA6A000EDA22DF8402D8C6
:1001180098EF00F00500FA6E2150FD6E2250FE6E39
:10012800F850FF6EFA501200010E1C24D96EDA6ADC
:10013800000EDA22DF50D8B4A4EF00F0A6EF00F0EA
:10014800B5EF00F002D8B3EF00F00500FA6E1F50CB
:10015800FD6E2050FE6EF850FF6EFA501200B7EF99
:1001680000F0A0EC01F01200CDEC01F0FC0E276EBF
:10017800030E286EF28EF28C000E326E010E316E76
:10018800C2EC01F00009D8B4CCEF00F0CEEF00F0DB
:10019800D3EF00F0315036EC01F0314A322A7F0EAD
:1001A80031183210D8A4DBEF00F0DDEF00F0E1EFFA
:1001B80000F0000E326E000E316E8BB0E6EF00F0EC
:1001C800E9EF00F0010EEAEF00F0000EFF0A306ED2
:1001D8008B503018FE0B30188B6E820E306EDE0E90
:1001E800E82EFED7302EFCD7C4EF00F058EF00F011
:1001F8009D9AB40E2E6E000E2F6EE2EC01F09D98C3
:10020800C20E2E6E020E2F6EDDEC01F0080EB86ED7
:10021800900EAB6E240EAC6E080EAF6E000EB06E74
:10022800FE0E2E6E030E2F6EECEC01F0EC0E2E6E11
:10023800030E2F6EE7EC01F0F20E2E6E030E2F6EFA
:10024800F1EC01F0000E196E000E1E6E000E1D6E10
:10025800080E296E000E1C6E000E1B6E000E1A6E24
:100268009D8A12002E6E2950D8B43DEF01F03FEF61
:1002780001F037EF01F09DB844EF01F046EF01F0CF
:100288004AEF01F02EC0ADFF5FEF01F09D98110E0F
:100298001E24D96EDA6A000EDA222EC0DFFF1E2A6B
:1002A800070E1E645AEF01F05CEF01F05EEF01F0FB
:1002B800000E1E6E29069D881200080E296067EF41
:1002C80001F069EF01F07FEF01F0110E1D24D96EE6
:1002D800DA6A000EDA22DF50AD6E1D2A070E1D64A1
:1002E80078EF01F07AEF01F07CEF01F0000E1D6E5F
:1002F800292A80EF01F09D981200000E8D6E000EE5
:100308008C6E000E896E000E8A6E000E8B6E070EC4
:10031800966E92689368BE0E946E95680F013B695D
:100328003C0E3A6F3F0E396F070E3C6F2F0E386F39
:10033800000E616EF18E1200090E1C24D96EDA6A65
:10034800000EDA22AECFDFFF1C2A070E1C64AFEFC7
:1003580001F0B1EF01F0B3EF01F0000E1C6E1A2AA4
:10036800120000EE01F01E0EEE6AE806FDE1339081
:100378003392000EF86E0001B8EF00F02950D8A4AF
:10038800C8EF01F0CBEF01F0010ECCEF01F0000E49
:100398001200FCEC01F081EC01F0D6EC01F0FCEC71
:1003A80000F01200520ED36E040ED26E000E9B6E39
:1003B80012002EC025F02FC026F012002EC027F004
:1003C8002FC028F012002EC021F02FC022F01200FA
:1003D8002EC023F02FC024F012002EC01FF02FC013
:1003E80020F01200AB98AB881200A0EC01F01200CC
:0803F800D09E12001200120059
:020000040020DA
:08000000FFFFFFFFFFFFFFFF00
:020000040030CA
:0E000000FF381F3CFFBF85FF0FC00FE00F4011
:00000001FF
