:020000040000FA
:0400000034EF7FF06A
:10FE3C0001C00BF002C00CF0120001C00FF002C0A8
:10FE4C0010F0120001C00DF002C00EF01200520EA4
:10FE5C00D36E040ED26E000E9B6E1200136A126AE1
:10FE6C00116A000EF86E0001CAEF7FF0ABEC7FF068
:10FE7C002DEC7FF050EC7FF08CEC7FF01200016EDB
:10FE8C009EA84BEF7FF04DEF7FF046EF7FF001C067
:10FE9C00ADFF1200010EC26E000EC16E840EC06E5C
:10FEAC00000EC36E000EC46E1200000E016E9EA8F2
:10FEBC0062EF7FF064EF7FF06DEF7FF0ACAA69EF3B
:10FECC007FF06BEF7FF06DEF7FF0010E016E015054
:10FEDC001200056E05C003F003460346C25003181A
:10FEEC00830B0318C26EC280C282C2B280EF7FF055
:10FEFC0082EF7FF07BEF7FF0C450046E036AC35037
:10FF0C000324016E000E0420026E1200080EB86E5F
:10FF1C00800EAB6E240EAC6E080EAF6E000EB06E83
:10FF2C00000E016E000E026E23EC7FF0000E016ECF
:10FF3C00000E026E28EC7FF0000E016E000E026EB9
:10FF4C001EEC7FF0000E136E1200000E8D6E000E74
:10FF5C008C6E000E896E000E8A6E000E8B6E070E74
:10FF6C00966E92689368BE0E946E95680F013B690D
:10FF7C00BC0E3A6F3F0E396F070E3C6F2F0E386F69
:10FF8C00000E616EF18E12003CEC7FF0000E6FECF7
:10FF9C007FF001C008F002C009F008C006F009C0EB
:10FFAC0007F0D89007320632D89007320632065046
:10FFBC000A6E5BEC7FF00009D8B4E7EF7FF0E9EF55
:10FFCC007FF0EDEF7FF00A5045EC7FF08B80820ED6
:10FFDC00066EDE0EE82EFED7062EFCD78B90820E18
:10FFEC00066EDE0EE82EFED7062EFCD7CCEF7FF089
:04FFFC0000EF00F022
:020000040020DA
:08000000FFFFFFFFFFFFFFFF00
:020000040030CA
:0E000000FF381F3CFFBF85FF0FC00FE00F4011
:00000001FF
