:020000040000FA
:0400000080312C28F7
:100008007E1480310B1F09280A282A282100101E77
:100018000E280F281A282000101E132814281A2822
:1000280043088A0042080A0080312A282100901ECD
:100038001E281F282A282000901E232824282A2822
:1000480041088A0040080A0080312A287E100900E9
:1000580080312E288231D6228031C5008231D722C4
:100068008031C600F901FA01FB01FC01203084004F
:10007800003085001A308231A72280317E1020009E
:100088008231582AF801632882318E228031003A61
:1000980003194F2850285F287408F7007308F600E2
:1000A80078087607840077080318770A850000081F
:1000B8008131712180310130F6007608F807750822
:1000C8007802031C68286928482882318E228031EA
:1000D800003A03197028712875280D308131712173
:1000E800803182318E228031003A03197C287D28A4
:1000F80081280A308131712180318230F600DE306A
:10010800890B8428F60B842882316F2280310800FD
:10011800210090120730F1000130F2008231B32241
:10012800803121001012C530F1000130F200823117
:10013800AD228031083023009F00B8309D002C305C
:100148009E0008309B009C01D830F1000230F2007C
:100158008231BF228031CB30F1000230F20082318F
:10016800B9228031CF30F1000230F2008231C5224D
:1001780080312000B801FC01FB010830F30073084E
:10018800C400FA01F901B901210090160800F5012F
:1001980081319B218031F3007308F4007508031D39
:1001A800D628D728DF284F307406031DDC28DD2821
:1001B800DF28F501F50A75080319E328E428F32870
:1001C8004B307406031DE928EA28F32882312122DE
:1001D80080318231042280318131E72180318231BE
:1001E80097228031003A0319FA28FB2806294B3058
:1001F800740603190029012906297508031D052914
:100208000629CC2808007A08203E8600870181014B
:1002180023001D1D102911291C297A08203E86005B
:100228008701811420003F088A003E080A008131B6
:1002380023009D1C202921292C297A08203E86008C
:100248008701011520003D088A003C080A00813119
:100258007A08203E860087010108031934293529C8
:100268003C2920003B088A003A080A0081313F29CE
:1002780082313E228131080022008C018D018E01DD
:10028800113021008C0070308D00DF308E00CF30AF
:1002980023008E00D0308D0011308C0024008D0199
:1002A8008C018E012100951725008C018D018E018E
:1002B800373026008C00F0308D00FF308E003F3044
:1002C80027008C00F0308D00FF308E000D303C0090
:1002D800A40012303D009F000800F20020004408EE
:1002E80003197729782972292100101A7C297D2978
:1002F8008129720823009A00982910127208F100C7
:100308007C08303E86008701710881000130F100C9
:100318007108FC0708307C02031C9329942995294D
:10032800FC0101302000C402210010160800200042
:1003380039080319A029A1299B297908203E86009C
:1003480087010108F1007108B8007908283E860085
:1003580087010108F1007108F2000130F10071080D
:10036800F90708307902031CBA29BB29BC29F9010D
:100378002100901201302000B90221009016720865
:1003880008000830200044020318CB29CC29E429AE
:100398007B08303E86008701010823009A0001305F
:1003A800F0007008FB0708307B02031CDC29DD29FC
:1003B800DE29FB010130F00070082000C407E6299F
:1003C80021001012080022008E160230F2000430BC
:1003D800F100BA30890BEE29F10BEE29F20BEE2968
:1003E800003222008E120230F2000430F100BA30DE
:1003F800890BFC29F10BFC29F20BFC2900320800BF
:1004080022000C150230F2000430F100BA30890BDA
:100418000B2AF10B0B2AF20B0B2A003222000C11CB
:100428000230F2000430F100BA30890B192AF10BBE
:10043800192AF20B192A0032080022008C14023003
:10044800F2000430F100BA30890B282AF10B282A6F
:10045800F20B282A003222008C100230F2000430FD
:10046800F100BA30890B362AF10B362AF20B362AFC
:100478000032080023001908F0007A08283E860098
:100488008701700881000130F0007008FA07083011
:100498007A02031C502A512A522AFA010130F0002C
:1004A80070082000B90708008231842282318B1736
:1004B8000B17D330F3008230F40002302000C7005D
:1004C8004708F5008031462082318031CB208231C7
:1004D8005D2A80312C2822008C162730F100F53057
:1004E800890B742AF10B742A000022008C12273021
:1004F800F100F530890B7E2AF10B7E2A00000800F6
:100508008131402182318231A022823180318C2098
:100518008231080020004408031D932A952A0130DF
:10052800962A0030080020003908031D9C2A9E2ABC
:1005380001309F2A003008006A3021009900980194
:10054800220096010800640080010131890BA82A65
:10055800003472082000C3007108C2000800720845
:100568002000C1007108C000080072082000BD000A
:100578007108BC00080072082000BF007108BE00A6
:10058800080072082000BB007108BA0008002300A8
:100598001D121D16080082313E22823108004134A6
:0A05A80054340034D33482340800C8
:020000040001F9
:06000E00FC3FFF3F9F3F95
:00000001FF
