:020000040000FA
:0400000080312C28F7
:100008007E1480310B1F09280A282A282100101E77
:100018000E280F281A282000101E132814281A2822
:1000280042088A0041080A0080312A282100901ECF
:100038001E281F282A282000901E232824282A2822
:1000480040088A003F080A0080312A287E100900EB
:1000580080312E28F701F801F901FA01FB0120305F
:10006800840000308500193082319F2280317E1053
:1000780020008131B229F50181318A218031F300D4
:100088007308F600750803194A284B285D284B3079
:100098007606031D502851285D28823115228031AB
:1000A8008231152280318231152280318231152228
:1000B80080314F307606031D622863286928823113
:1000C80015228031F501F50A6C288131F82180313B
:1000D800823190228031003A0319732874287F28CE
:1000E8004B307606031979287A287F287508031D6E
:1000F8007E287F2840288231322280310800210062
:100108009012C230F1000030F2008231AB2280310F
:1001180021001012D630F1000130F2008231A52200
:100128008031083023009F00B8309D002C309E009D
:1001380008309B009C01CE30F1000230F200823181
:10014800B7228031C330F1000230F2008231B1228F
:100158008031C730F1000230F2008231BD22803197
:100168002000B801FB01FA010830F3007308C3004E
:10017800F901F801F7012100901608007908203EDE
:1001880086008701810123001D1DCB28CC28D72894
:100198007908203E86008701811420003E088A00E5
:1001A8003D080A00803123009D1CDB28DC28E72855
:1001B8007908203E86008701011520003C088A0046
:1001C8003B080A0080317908203E86008701010833
:1001D8000319EF28F028F72820003A088A00390880
:1001E8000A008031FA2882314F228031080082319A
:1001F80087228031003A031902290329072941304F
:10020800813160218031823187228031003A03199F
:100218000E290F2913295430813160218031823110
:1002280087228031003A03191A291B291F290D300A
:10023800813160218031823187228031003A03196F
:10024800262927292B290A308131602180318231E2
:1002580068228031080022008C018D018E01113046
:1002680021008C0070308D00DF308E00CF302300ED
:100278008E00D0308D0011308C0024008D018C014F
:100288008E012100951725008C018D018E013730D4
:1002980026008C00F0308D00FF308E003F302700A4
:1002A8008C00F0308D00FF308E000D303C00A40033
:1002B80012303D009F000800F20020004308031997
:1002C8006629672961292100101A6B296C29702970
:1002D800720823009A00872910127208F1007B081F
:1002E800303E86008701710881000130F1007108F5
:1002F800FB0708307B02031C822983298429FB0120
:1003080001302000C30221001016080077080319E5
:100318008E298F298A297808203E860087010108BE
:10032800F10071082000B8007808283E860087018F
:100338000108F1007108F2000130F1007108F807B6
:1003480008307802031CA929AA29AB29F801210041
:1003580090120130F70290167208080082317D224F
:1003680081318B170B17CB30F3008230F400023049
:100378002000C4004408F5008031FB2081310B3097
:100388002000C5002630C4005D30890BC929C40B84
:10039800C929C50BC929003280313F208131B729CD
:1003A80080312C280830200043020318DC29DD297D
:1003B800F5297A08303E86008701010823009A0053
:1003C8000130F0007008FA0708307A02031CED29A2
:1003D800EE29EF29FA010130F00070082000C30768
:1003E800F72921001012080022008E160230F200B0
:1003F8000430F100BA30890BFF29F10BFF29F20B09
:10040800FF29003222008E120230F2000430F1007F
:10041800BA30890B0D2AF10B0D2AF20B0D2A003286
:10042800080022000C150230F2000430F100BA3046
:10043800890B1C2AF10B1C2AF20B1C2A0032220001
:100448000C110230F2000430F100BA30890B2A2A6C
:10045800F10B2A2AF20B2A2A0032080022008C14F7
:100468000230F2000430F100BA30890B392AF10B5E
:10047800392AF20B392A003222008C100230F2009D
:100488000430F100BA30890B472AF10B472AF20BE6
:10049800472A0032080023001908F0007908283E8E
:1004A80086008701700881000130F0007008F907A4
:1004B80008307902031C612A622A632AF901013093
:1004C800F0007008F707080022008C162730F100AA
:1004D800F530890B6D2AF10B6D2A000022008C1271
:1004E8002730F100F530890B772AF10B772A0000C5
:1004F800080081312F218231823198228231803166
:1005080083208231080020004308031D8C2A8E2A8C
:1005180001308F2A003008007708031D942A962A94
:100528000130972A003008006A30210099009801AC
:10053800220096010800640080010131890BA02A7D
:10054800003472082000C2007108C1000800720857
:100558002000C0007108BF00080072082000BC001D
:100568007108BB00080072082000BE007108BD00B9
:10057800080072082000BA007108B90008002300BA
:100588001D121D16080082314F22823108004134A5
:0605980054340034080099
:020000040001F9
:06000E00FC3FFF3F9F3F95
:00000001FF
