:020000040000FA
:0400000080312C28F7
:100008007E1480310B1F09280A282A282100101E77
:100018000E280F281A282000101E132814281A2822
:1000280044088A0043080A0080312A282100901ECB
:100038001E281F282A282000901E232824282A2822
:1000480042088A0041080A0080312A287E100900E7
:1000580080312E28F901FA01FB012030840000309C
:1000680085001B3082317E2280317E102000803155
:10007800E628210090127C30F1000030F200823135
:100088008A22803121001012B330F1000130F200D1
:10009800823184228031083023009F00B8309D00CF
:1000A8002C309E0008309B009C01AD30F1000230DE
:1000B800F200823196228031A230F1000230F20043
:1000C800823190228031A630F1000230F200823174
:1000D8009C2280312000B801FB01BA010830F300EE
:1000E8007308C500FA01F901B9012100901608004A
:1000F8007A08203E86008701810123001D1D85287E
:10010800862891287A08203E8600870181142000DD
:1001180040088A003F080A00803123009D1C95286A
:100128009628A1287A08203E86008701011520001C
:100138003E088A003D080A0080317A08203E860081
:10014800870101080319A928AA28B12820003C081A
:100158008A003B080A008031B42882312C22803181
:10016800080022008C018D018E01113021008C00C5
:1001780070308D00DF308E00CF3023008E00D030FD
:100188008D0011308C0024008D018C018E0121001E
:10019800951725008C018D018E01373026008C00C3
:1001A800F0308D00FF308E003F3027008C00F0309B
:1001B8008D00FF308E000D303C00A40012303D0051
:1001C8009F00080082315B2280318B170B17AA3001
:1001D800F3008230F40002302000C6004608F50023
:1001E8008131672180310B302000C7002630C600DE
:1001F8005D30890BFD28C60BFD28C70BFD28003292
:1002080081318E21803181318E21803181318E2161
:10021800803181318E218031EB2880312C28F20009
:1002280020004508031919291A2914292100101A30
:100238001E291F292329720823009A003A2910121F
:100248007208F1007B08303E860087017108810042
:100258000130F1007108FB0708307B02031C3529C7
:1002680036293729FB0101302000C502210010166C
:100278000800200039080319422943293D29790833
:10028800203E860087010108F1007108B80079084E
:10029800283E860087010108F1007108F20001304C
:1002A800F1007108F90708307902031C5C295D29FF
:1002B8005E29F9012100901201302000B9022100C5
:1002C800901672080800F801872982316522813169
:1002D800003A03197029712983297408F7007308F3
:1002E800F60078087607840077080318770A8500EF
:1002F8000008813113218131823146228131013058
:10030800F6007608F80775087802031C8C298D29F1
:100318006929080081313D218131F3007308F50016
:100328004F307506031D99299A299E298131F2219A
:100338008131A1298131D521813182316E228131EA
:10034800003A0319A829A929AF294F307506031DBA
:10035800AE29AF298E2982310F2281310800083059
:10036800200045020318B929BA29D2293A08303E93
:1003780086008701010823009A000130F000700808
:100388002000BA0708303A02031CCB29CC29CD2912
:10039800BA010130F0007008C507D42921001012F5
:1003A800080022008E160230F2000430F100BA3044
:1003B800890BDC29F10BDC29F20BDC290032220045
:1003C8008E120230F2000430F100BA30890BEA29AB
:1003D800F10BEA29F20BEA290032080022000C1579
:1003E8000230F2000430F100BA30890BF929F10B20
:1003F800F929F20BF929003222000C110230F2001F
:100408000430F100BA30890B072AF10B072AF20BE6
:10041800072A0032080022008C140230F20004304F
:10042800F100BA30890B162AF10B162AF20B162A9C
:10043800003222008C100230F2000430F100BA3091
:10044800890B242AF10B242AF20B242A00320800F3
:1004580023001908F0007A08283E860087017008F2
:1004680081000130F0007008FA0708307A02031C96
:100478003E2A3F2A402AFA010130F0007008200085
:10048800B907080022008C162730F100F530890BD7
:100498004B2AF10B4B2A000022008C122730F10066
:1004A800F530890B552AF10B552A000008008031D8
:1004B800B520823182317722823180313D208231EC
:1004C800080020004508031D6A2A6C2A01306D2A9D
:1004D8000030080020003908031D732A752A0130EE
:1004E800762A003008006A3021009900980122001D
:1004F80096010800640080010131890B7F2A0034CD
:1005080072082000C4007108C300080072082000A7
:10051800C2007108C100080072082000BE007108FE
:10052800BD00080072082000C0007108BF00080064
:1005380072082000BC007108BB00080023001D12CF
:100548001D16080082312C228231080041345434AF
:040558000034080063
:020000040001F9
:06000E00FC3FFF3F9F3F95
:00000001FF
