:020000040000FA
:0400000080312C28F7
:100008007E1480310B1F09280A282A282100101E77
:100018000E280F281A282000101E132814281A2822
:1000280043088A0042080A0080312A282100901ECD
:100038001E281F282A282000901E232824282A2822
:1000480041088A0040080A0080312A287E100900E9
:1000580080312E28F901FA01FB01FC0120308400CF
:10006800003085001A308231812280317E102000D4
:100078008131AC29210090127D30F1000030F2006E
:1000880082318D228031210010128A30F100013036
:10009800F200823187228031083023009F00B83077
:1000A8009D002C309E0008309B009C01AD30F10073
:1000B8000230F200823199228031A530F1000230FD
:1000C800F200823193228031A930F1000230F2002F
:1000D80082319F2280312000B801FC01FB010830E9
:1000E800F3007308C400FA01F901B9012100901660
:1000F80008007A08203E86008701810123001D1D23
:100108008628872892287A08203E8600870181144D
:1001180020003F088A003E080A00803123009D1C09
:1001280096289728A2287A08203E8600870101157C
:1001380020003D088A003C080A0080317A08203EE9
:100148008600870101080319AA28AB28B2282000D5
:100158003B088A003A080A008031B52882312322F8
:100168008031080022008C018D018E0111302100A0
:100178008C0070308D00DF308E00CF3023008E0071
:10018800D0308D0011308C0024008D018C018E013F
:100198002100951725008C018D018E01373026002E
:1001A8008C00F0308D00FF308E003F3027008C002F
:1001B800F0308D00FF308E000D303C00A40012306E
:1001C8003D009F000800F200200044080319ED28B4
:1001D800EE28E8282100101AF228F328F7287208D8
:1001E80023009A000E2910127208F1007C08303E94
:1001F80086008701710881000130F1007108FC0751
:1002080008307C02031C09290A290B29FC0101304A
:100218002000C40221001016080020003908031924
:100228001629172911297908203E86008701010817
:10023800F1007108B8007908283E86008701010896
:10024800F1007108F2000130F1007108F907083077
:100258007902031C302931293229F9012100901231
:1002680001302000B9022100901672080800F5013B
:100278005229813111218131F3007308F4004F3084
:100288007406031D482949294D298131E921813105
:1002980050298131CC218131F501F50A8231712251
:1002A8008131003A031D59295A293D297508031936
:1002B8005E295F2962298231062281310800F8010E
:1002C8008329823168228131003A03196C296D290A
:1002D8007F297408F7007308F60078087607840009
:1002E80077080318770A850000088031E7208131F4
:1002F80082313D2281310130F6007608F807750811
:100308007802031C882989296529080008302000FB
:100318004402031890299129A9297B08303E8600B8
:100328008701010823009A000130F0007008FB07DC
:1003380008307B02031CA129A229A329FB01013053
:10034800F00070082000C407AB2921001012080033
:1003580082315E2281318B170B175230F3008230C5
:10036800F4000B302000C5004508F50081316321F9
:10037800813181313B21813181313B218131813191
:100388003B21813181313B218131B12980312C28B8
:1003980022008E160230F2000430F100BA30890BC8
:1003A800D329F10BD329F20BD329003222008E1264
:1003B8000230F2000430F100BA30890BE129F10B68
:1003C800E129F20BE1290032080022000C15023065
:1003D800F2000430F100BA30890BF029F10BF02952
:1003E800F20BF029003222000C110230F200043026
:1003F800F100BA30890BFE29F10BFE29F20BFE2918
:100408000032080022008C140230F2000430F1009F
:10041800BA30890B0D2AF10B0D2AF20B0D2A003286
:1004280022008C100230F2000430F100BA30890B3F
:100438001B2AF10B1B2AF20B1B2A0032080023008F
:100448001908F0007A08283E8600870170088100A4
:100458000130F0007008FA0708307A02031C352AC8
:10046800362A372AFA010130F00070082000B9074F
:10047800080022008C162730F100F530890B422A3B
:10048800F10B422A000022008C122730F100F530CF
:10049800890B4C2AF10B4C2A0000080041346534C2
:1004A80054342B34433457344D344F344434453466
:1004B8003D3400348031B620823182317A22823153
:1004C80080313E208231080020004408031D6D2A37
:1004D8006F2A0130702A0030080020003908031DF7
:1004E800762A782A0130792A003008006A302100FB
:1004F80099009801220096010800640080010131EA
:10050800890B822A003472082000C3007108C200D7
:10051800080072082000C1007108C00008007208B5
:100528002000BD007108BC00080072082000BF0050
:100538007108BE00080072082000BB007108BA00EC
:10054800080023001D121D16080082312322823163
:04055800080008008F
:020000040001F9
:06000E00FC3FFF3F9F3F95
:00000001FF
