:020000040000FA
:0400000080312C28F7
:100008007E1480310B1F09280A282A282100101E77
:100018000E280F281A282000101E132814281A2822
:1000280043088A0042080A0080312A282100901ECD
:100038001E281F282A282000901E232824282A2822
:1000480041088A0040080A0080312A287E100900E9
:1000580080312E288231F2228031C5008231F3228C
:100068008031C600F901FA01FB01FC01203084004F
:10007800003085001A308231BF2280317E10200086
:100088008231702AF8016B288231A6228031003A29
:1000980003194F28502867287408F7007308F600DA
:1000A80078087607840077080318770A850000081F
:1000B8008131892180318231E3228031003A031D68
:1000C800662867285F280130F6007608F807750863
:1000D8007802031C7028712848288231A6228031B2
:1000E800003A03197828792885280D30813189212B
:1000F80080318231E3228031003A031D842885282B
:100108007D288231A6228031003A03198C288D2857
:1001180099280A308131892180318231E322803166
:10012800003A031D9828992891288230F600DE307D
:10013800890B9C28F60B9C28823187228031080085
:10014800210090121F30F1000130F2008231CB22E1
:10015800803121001012DD30F1000130F2008231CF
:10016800C5228031083023009F00B8309D002C3014
:100178009E0008309B009C01F430F1000230F20030
:100188008231D7228031E730F1000230F20082312B
:10019800D1228031EB30F1000230F2008231DD22D1
:1001A80080312000B801FC01FB010830F30073081E
:1001B800C400FA01F901B901210090160800F501FF
:1001C8008131B3218031F3007308F4007508031DF1
:1001D800EE28EF28F7284F307406031DF428F52879
:1001E800F728F501F50A75080319FB28FC280B29DF
:1001F8004B307406031D012902290B29823139224B
:10020800803182311C2280318131FF21803182315D
:10021800AF228031003A0319122913291E294B30C5
:1002280074060319182919291E297508031D1D2983
:100238001E29E42808007A08203E860087018101EB
:1002480023001D1D2829292934297A08203E8600E3
:100258008701811420003F088A003E080A00813186
:1002680023009D1C3829392944297A08203E860014
:100278008701011520003D088A003C080A008131E9
:100288007A08203E86008701010803194C294D2968
:10029800542920003B088A003A080A00813157296E
:1002A800823156228131080022008C018D018E0195
:1002B800113021008C0070308D00DF308E00CF307F
:1002C80023008E00D0308D0011308C0024008D0169
:1002D8008C018E012100951725008C018D018E015E
:1002E800373026008C00F0308D00FF308E003F3014
:1002F80027008C00F0308D00FF308E000D303C0060
:10030800A40012303D009F000800F20020004408BD
:1003180003198F2990298A292100101A94299529CF
:100328009929720823009A00B02910127208F10066
:100338007C08303E86008701710881000130F10099
:100348007108FC0708307C02031CAB29AC29AD29D5
:10035800FC0101302000C402210010160800200012
:1003680039080319B829B929B3297908203E860024
:1003780087010108F1007108B8007908283E860055
:1003880087010108F1007108F2000130F1007108DD
:10039800F90708307902031CD229D329D429F90195
:1003A8002100901201302000B90221009016720835
:1003B80008000830200044020318E329E429FC2936
:1003C8007B08303E86008701010823009A0001302F
:1003D800F0007008FB0708307B02031CF429F5299C
:1003E800F629FB010130F00070082000C407FE293F
:1003F80021001012080022008E160230F20004308C
:10040800F100BA30890B062AF10B062AF20B062AEC
:10041800003222008E120230F2000430F100BA30AD
:10042800890B142AF10B142AF20B142A0032080043
:1004380022000C150230F2000430F100BA30890BAA
:10044800232AF10B232AF20B232A003222000C1153
:100458000230F2000430F100BA30890B312AF10B76
:10046800312AF20B312A0032080022008C140230A3
:10047800F2000430F100BA30890B402AF10B402A0F
:10048800F20B402A003222008C100230F2000430B5
:10049800F100BA30890B4E2AF10B4E2AF20B4E2A84
:1004A8000032080023001908F0007A08283E860068
:1004B8008701700881000130F0007008FA070830E1
:1004C8007A02031C682A692A6A2AFA010130F000B4
:1004D80070082000B907080082319C2282318B17EE
:1004E8000B17EF30F3008230F40002302000C70011
:1004F8004708F5008031462082318031E32082317F
:10050800752A80312C2822008C162730F100F5300E
:10051800890B8C2AF10B8C2A000022008C122730C0
:10052800F100F530890B962AF10B962A0000080095
:100538008131582182318231B82282318031A42020
:100548008231080020004408031DAB2AAD2A01307F
:10055800AE2A0030080020003908031DB42AB62A44
:100568000130B72A003008006A302100990098014C
:10057800220096010800640080010131890BC02A1D
:10058800003472082000C3007108C2000800720815
:100598002000C1007108C000080072082000BD00DA
:1005A8007108BC00080072082000BF007108BE0076
:1005B800080072082000BB007108BA000800230078
:1005C8001E0C0139080023001D121D160800823177
:1005D800562282310800413454340034EF348234D6
:0205E800080009
:020000040001F9
:06000E00FC3FFF3F9F3F95
:00000001FF
