:020000040000FA
:08000000803102288731FC2F3A
:100CE0007708F1007608F00008007708F50076082C
:100CF000F40008007708F3007608F20008002000EE
:100D0000100E890C013908006A3021009900980101
:100D100022009601080087318E278631863184268D
:100D200086318731452786310800F6002000101EE5
:100D30009A2E9B2E962E760823009A0008002000FB
:100D4000901EA32EA42E9F2EFC0123009D1CA92ED5
:100D5000AA2EAC2E1D121D1619080800F60120003F
:100D6000101EB32EB42EBB2E23009E1EB82EB92EFD
:100D7000BB2EF601F60A7608080086318B268631EE
:100D80000030F8008830F9000630FB007B08FA00DC
:100D90008731BF278631873166278631C02E803163
:100DA000022822008C140230F7000430F600BA301A
:100DB000890BD82EF60BD82EF70BD82E0032220036
:100DC0008C100230F7000430F600BA30890BE62EA2
:100DD000F60BE62EF70BE62E0032080022000C156B
:100DE0000230F7000430F600BA30890BF52EF60B0E
:100DF000F52EF70BF52E003222000C110230F70011
:100E00000430F600BA30890B032FF60B032FF70BD3
:100E1000032F0032080022008E160230F700043043
:100E2000F600BA30890B122FF60B122FF70B122F88
:100E3000003222008E120230F7000430F600BA3081
:100E4000890B202FF60B202FF70B202F00320800E4
:100E500022008C160330F7000830F6007730890B3B
:100E60002F2FF60B2F2FF70B2F2F000022008C12A5
:100E70000330F7000830F6007730890B3D2FF60B72
:100E80003D2FF70B3D2F00000800083023009F0086
:100E900090309D0024309E0008309B009C01003063
:100EA000F6000030F7008631752687310030F600F5
:100EB0000030F70086317A2687310030F6000030A6
:100EC000F700863170268731FC010800FA017D2F7A
:100ED00086319F268731F8007808F900413079067D
:100EE000031D732F742F782F8631EE2687317B2FC9
:100EF00087310B278731FA01FA0A86317F2687313D
:100F0000003A031D842F852F682F7A080319892F33
:100F10008A2F8D2F8631D1268731080022008C013F
:100F20008D018E01113021008C0070308D00DF307A
:100F30008E00CF3023008E00D0308D0011308C0019
:100F400024008D018C018E012100951725008C0154
:100F50008D018E01373026008C00F0308D00FF307F
:100F60008E003F3027008C00F0308D00FF308E0067
:100F70000D303C00A40012303D009F000800863177
:100F8000AE268731003A0319C62FC72FCE2F413026
:100F90008631952687318731282787318631AE26DD
:100FA0008731003A0319D52FD62FDD2F54308631E3
:100FB000952687318731282787318631AE268731BC
:100FC000003A0319E42FE52FEC2F0D3086319526DA
:100FD00087318731282787318631AE268731003A1D
:100FE0000319F32FF42FFB2F0A3086319526873112
:100FF0008731282787310800FC0120008631BD2E6B
:0A100000413454340D340A34003436
:020000040001F9
:06000E00FC3FFF3F9F3F95
:00000001FF
