:020000040000FA
:0400000080312C28F7
:100008007E1480310B1F09280A282A282100101E77
:100018000E280F281A282000101E132814281A2822
:1000280041088A0040080A0080312A282100901ED1
:100038001E281F282A282000901E232824282A2822
:100048003F088A003E080A0080312A287E100900ED
:1000580080312E28F001F101F201F301F401F501DC
:1000680020308400003085001830823184228031AD
:100078007E1020008231372A21009012BA30F70012
:100088000030F80082319022803121001012A73010
:10009800F7000130F80082318A22803108302300CD
:1000A8009F00B8309D002C309E0008309B009C01BA
:1000B800B330F7000230F80082319C228031A8303A
:1000C800F7000230F800823196228031AC30F70018
:1000D8000230F8008231A2228031F001F501F401EA
:1000E8000830F9007908FC00F301F201F101210060
:1000F80090160800FB01813180218031F9007908D0
:10010800FA007B08031D89288A2892284F307A062E
:10011800031D8F2890289228FB01FB0A7B080319EE
:1001280096289728A6284B307A06031D9C289D28D8
:10013800A6288231012280318131E4218031813148
:10014800C7218031823175228031003A0319AD28E8
:10015800AE28B9284B307A060319B328B428B92831
:100168007B08031DB828B9287F2808007308203E9B
:1001780086008701810123001D1DC328C428CF28BC
:100188007308203E86008701811420003D088A00FC
:100198003C080A00803123009D1CD328D428DF287E
:1001A8007308203E86008701011520003B088A005D
:1001B8003A080A0080317308203E8600870101084A
:1001C8000319E728E828EF28200039088A003808AA
:1001D8000A008031F22882311E22803108008231E3
:1001E8006D228031003A0319FA28FB28FF28413094
:1001F80081315821803182316D228031003A0319D2
:10020800062907290B295430813158218031823140
:100218006D228031003A03191229132917290D304C
:1002280081315821803182316D228031003A0319A1
:100238001E291F2923290A30813158218031823112
:100248004E228031080022008C018D018E01113070
:1002580021008C0070308D00DF308E00CF302300FD
:100268008E00D0308D0011308C0024008D018C015F
:100278008E012100951725008C018D018E013730E4
:1002880026008C00F0308D00FF308E003F302700B4
:100298008C00F0308D00FF308E000D303C00A40043
:1002A80012303D009F000800F8007C0803195D2902
:1002B8005E2959292100101A6229632967297808BB
:1002C80023009A007D2910127808F7007508303E3F
:1002D80086008701770881000130F7007708F50765
:1002E80008307502031C79297A297B29F501013028
:1002F800FC022100101608007108031984298529B9
:1003080080297208203E860087010108F7007708D7
:10031800F0007208283E860087010108F700770878
:10032800F8000130F7007708F20708307202031C62
:100338009E299F29A029F201210090120130F10283
:1003480090167808080008307C020318AC29AD29FB
:10035800C4297408303E86008701010823009A00EA
:100368000130F6007608F40708307402031CBD2932
:10037800BE29BF29F4010130F6007608FC07C6291A
:1003880021001012080022008E160230F8000430F6
:10039800F700BA30890BCE29F70BCE29F80BCE29F6
:1003A800003222008E120230F8000430F700BA3012
:1003B800890BDC29F70BDC29F80BDC290032080053
:1003C80022000C150230F8000430F700BA30890B0F
:1003D800EB29F70BEB29F80BEB29003222000C1163
:1003E8000230F8000430F700BA30890BF929F70B0E
:1003F800F929F80BF9290032080022008C14023080
:10040800F8000430F700BA30890B082AF70B082ADD
:10041800F80B082A003222008C100230F800043051
:10042800F700BA30890B162AF70B162AF80B162A8A
:100438000032080023001908F6007308283E8600D9
:100448008701760881000130F6007608F307083046
:100458007302031C302A312A322AF3010130F600D4
:100468007608F10708008231632282318B170B1757
:10047800B030F9008230FA0002302000C200420891
:10048800FB008031F320823180317E2082313C2A8A
:1004980080312C2822008C162730F700F530890B84
:1004A800532AF70B532A000022008C122730F7003A
:1004B800F530890B5D2AF70B5D2A000008008131B1
:1004C8002721823182317D22823180314020823160
:1004D80008007C08031D712A732A0130742A003031
:1004E80008007108031D792A7B2A01307C2A003014
:1004F80008006A302100990098012200960108003E
:10050800640080010131890B852A003478082000B5
:10051800C1007708C000080078082000BF007708ED
:10052800BE00080078082000BB007708BA00080061
:1005380078082000BD007708BC0008007808200073
:10054800B9007708B800080023001D121D1608001E
:1005580082311E22823108004134543400340800AC
:020000040001F9
:06000E00FC3FFF3F9F3F95
:00000001FF
