:020000040000FA
:0400000080312C28F7
:100008007E1480310B1F09280A282A282100101E77
:100018000E280F281A282000101E132814281A2822
:1000280043088A0042080A0080312A282100901ECD
:100038001E281F282A282000901E232824282A2822
:1000480041088A0040080A0080312A287E100900E9
:1000580080312E28F901FA01FB01FC0120308400CF
:10006800003085001A308231982280317E102000BD
:100078008231492AF8015B2882317F228031003A97
:1000880003194728482857287408F7007308F6000A
:1000980078087607840077080318770A850000082F
:1000A8008131622180310130F6007608F807750841
:1000B8007802031C60286128402882317F22803121
:1000C800003A0319682869286D280D3081316221AA
:1000D800803182317F228031003A031974287528D3
:1000E80079280A3081316221803182316022803161
:1000F800080021009012F830F1000030F20082313F
:10010800A422803121001012B630F1000130F20033
:1001180082319E228031083023009F00B8309D0034
:100128002C309E0008309B009C01C630F100023044
:10013800F2008231B0228031BC30F1000230F2008E
:100148008231AA228031C030F1000230F2008231BF
:10015800B62280312000B801FC01FB010830F30011
:100168007308C400FA01F901B901210090160800CA
:10017800F50181318C218031F3007308F400750892
:10018800031DC728C828D0284F307406031DCD2862
:10019800CE28D028F501F50A75080319D428D528E2
:1001A800E4284B307406031DDA28DB28E428823162
:1001B800122280318131F52180318131D82180317D
:1001C800823188228031003A0319EB28EC28F7287D
:1001D8004B3074060319F128F228F7287508031D17
:1001E800F628F728BD2808007A08203E86008701EF
:1001F800810123001D1D012902290D297A08203EAD
:1002080086008701811420003F088A003E080A0002
:10021800813123009D1C112912291D297A08203EAD
:1002280086008701011520003D088A003C080A0065
:1002380081317A08203E86008701010803192529A3
:1002480026292D2920003B088A003A080A00813116
:10025800302982312F228031080022008C018D0143
:100268008E01113021008C0070308D00DF308E003F
:10027800CF3023008E00D0308D0011308C00240048
:100288008D018C018E012100951725008C018D01AF
:100298008E01373026008C00F0308D00FF308E0044
:1002A8003F3027008C00F0308D00FF308E000D307D
:1002B8003C00A40012303D009F000800F20020001E
:1002C800440803196829692963292100101A6D292E
:1002D8006E297229720823009A008929101272085F
:1002E800F1007C08303E86008701710881000130EA
:1002F800F1007108FC0708307C02031C8429852959
:100308008629FC0101302000C402210010160800D3
:10031800200039080319912992298C297908203E4F
:10032800860087010108F1007108B8007908283EA5
:10033800860087010108F1007108F2000130F10020
:100348007108F90708307902031CAB29AC29AD29DB
:10035800F9012100901201302000B9022100901605
:10036800720808000830200044020318BC29BD297F
:10037800D5297B08303E86008701010823009A00B2
:100388000130F0007008FB0708307B02031CCD2900
:10039800CE29CF29FB010130F00070082000C407E6
:1003A800D72921001012080022008E160230F20010
:1003B8000430F100BA30890BDF29F10BDF29F20B89
:1003C800DF29003222008E120230F2000430F100E0
:1003D800BA30890BED29F10BED29F20BED2900322A
:1003E800080022000C150230F2000430F100BA3087
:1003F800890BFC29F10BFC29F20BFC2900322200A5
:100408000C110230F2000430F100BA30890B0A2ACC
:10041800F10B0A2AF20B0A2A0032080022008C1477
:100428000230F2000430F100BA30890B192AF10BBE
:10043800192AF20B192A003222008C100230F2001D
:100448000430F100BA30890B272AF10B272AF20B66
:10045800272A0032080023001908F0007A08283EED
:1004680086008701700881000130F0007008FA07E3
:1004780008307A02031C412A422A432AFA01013031
:10048800F00070082000B907080082317522823117
:100498008B170B17C430F3008230F40002302000B1
:1004A800C5004508F50080313E2082318031BC20EE
:1004B80082314E2A80312C2822008C162730F100F8
:1004C800F530890B652AF10B652A000022008C1291
:1004D8002730F100F530890B6F2AF10B6F2A0000E5
:1004E800080081313121823182319122823180317B
:1004F8007D208231080020004408031D842A862AB2
:100508000130872A0030080020003908031D8D2A91
:100518008F2A0130902A003008006A3021009900A3
:100528009801220096010800640080010131890BBE
:10053800992A003472082000C3007108C20008001C
:1005480072082000C1007108C0000800720820006D
:10055800BD007108BC00080072082000BF007108C7
:10056800BE00080072082000BB007108BA0008002D
:1005780023001D121D16080082312F228231080027
:0605880041345434080068
:020000040001F9
:06000E00FC3FFF3F9F3F95
:00000001FF
