:020000040000FA
:0400000080312C28F7
:100008007E1480310B1F09280A282A282100101E77
:100018000E280F281A282000101E132814281A2822
:1000280042088A0041080A0080312A282100901ECF
:100038001E281F282A282000901E232824282A2822
:1000480040088A003F080A0080312A287E100900EB
:1000580080312E28F601F701F801F901FA01203064
:10006800840000308500193082317B2280317E1077
:10007800200081319129210090127E30F10000305A
:10008800F20082318722803121001012B530F10050
:100098000130F200823181228031083023009F0034
:1000A800B8309D002C309E0008309B009C01AA307F
:1000B800F1000230F2008231932280319F30F1004A
:1000C8000230F20082318D228031A330F1000230FB
:1000D800F2008231992280312000B801FA01F90139
:1000E8000830F3007308FB00F801F701F60121005E
:1000F800901608007808203E8600870181012300B9
:100108001D1D8728882893287808203E86008701A7
:10011800811420003E088A003D080A00803123002F
:100128009D1C97289828A3287808203E86008701D8
:10013800011520003C088A003B080A008031780835
:10014800203E8600870101080319AB28AC28B32894
:1001580020003A088A0039080A008031B62882311E
:100168002C2280310800823164228031003A031940
:10017800BE28BF28C328413081311C2180318231FB
:1001880064228031003A0319CA28CB28CF2854307A
:1001980081311C218031823164228031003A031977
:1001A800D628D728DB280D3081311C2180318231B7
:1001B80064228031003A0319E228E328E7280A304C
:1001C80081311C2180318231452280310800220092
:1001D8008C018D018E01113021008C0070308D0052
:1001E800DF308E00CF3023008E00D0308D001130EC
:1001F8008C0024008D018C018E01210095172500AB
:100208008C018D018E01373026008C00F0308D0076
:10021800FF308E003F3027008C00F0308D00FF301B
:100228008E000D303C00A40012303D009F000800F5
:10023800F2007B080319212922291D292100101AFF
:10024800262927292B29720823009A0041291012F0
:100258007208F1007A08303E860087017108810033
:100268000130F1007108FA0708307A02031C3D29B1
:100278003E293F29FA010130FB022100101608002F
:10028800760803194829492944297708203E860019
:1002980087010108F10071082000B8007708283E9E
:1002A800860087010108F1007108F2000130F100B1
:1002B8007108F70708307702031C63296429652948
:1002C800F701210090120130F6029016720808001A
:1002D800813144218131F3007308F5004B307506F4
:1002E800031D772978297C298131F22181317F29E1
:1002F8008131D521813182316C228131003A031953
:10030800862987298D294B307506031D8C298D294F
:100318006C2982310F228131080082315A228131C1
:100328008B170B17A730F3008230F400023020003F
:10033800C3004308F5008031B72081310B3020001D
:10034800C4002630C3005D30890BA829C30BA82937
:10035800C40BA829003281316C2181319629803162
:100368002C2808307B020318BA29BB29D22979081E
:10037800303E86008701010823009A000130F00012
:100388007008F90708307902031CCB29CC29CD293C
:10039800F9010130F0007008FB07D4292100101280
:1003A800080022008E160230F2000430F100BA3044
:1003B800890BDC29F10BDC29F20BDC290032220045
:1003C8008E120230F2000430F100BA30890BEA29AB
:1003D800F10BEA29F20BEA290032080022000C1579
:1003E8000230F2000430F100BA30890BF929F10B20
:1003F800F929F20BF929003222000C110230F2001F
:100408000430F100BA30890B072AF10B072AF20BE6
:10041800072A0032080022008C140230F20004304F
:10042800F100BA30890B162AF10B162AF20B162A9C
:10043800003222008C100230F2000430F100BA3091
:10044800890B242AF10B242AF20B242A00320800F3
:1004580023001908F0007808283E860087017008F4
:1004680081000130F0007008F80708307802031C9A
:100478003E2A3F2A402AF8010130F0007008F607AA
:10048800080022008C162730F100F530890B4A2A23
:10049800F10B4A2A000022008C122730F100F530B7
:1004A800890B542AF10B542A000008008031EB20F4
:1004B800823182317422823180313F2082310800BA
:1004C8007B08031D682A6A2A01306B2A003008005D
:1004D8007608031D702A722A0130732A003008003A
:1004E8006A302100990098012200960108006400F2
:1004F80080010131890B7C2A003472082000C20077
:100508007108C100080072082000C0007108BF000F
:10051800080072082000BC007108BB0008007208BF
:100528002000BE007108BD00080072082000BA0053
:100538007108B900080023001D121D160800823139
:0E0548002C2282310800413454340034080063
:020000040001F9
:06000E00FC3FFF3F9F3F95
:00000001FF
