:0400000051EF00F0CC
:0C000800FACF1FF0FBCF20F069ED1AF0DA
:10001800D8CF01F0E8CF02F0E0CF03F0FACF04F038
:10002800FBCF05F0E9CF06F0EACF07F0E1CF08F003
:10003800E2CF09F0D9CF0AF0DACF0BF0F3CF0CF00A
:10004800F4CF0DF0F6CF0EF0F7CF0FF0F8CF10F099
:10005800F5CF11F011C0F5FF10C0F8FF0FC0F7FF82
:100068000EC0F6FF0DC0F4FF0CC0F3FF0BC0DAFFA3
:100078000AC0D9FF09C0E2FF08C0E1FF07C0EAFFD4
:1000880006C0E9FF05C0FBFF04C0FAFF03C0E0FF9C
:0E00980002C0E8FF01C0D8FF1000B0EF1DF05D
:1008000000010000000A00000064000000E803008E
:100810000010270000A086010040420F008096983B
:100820000000E1F50500CA9A3B00803FCDCC3DD7E2
:10083000233C12833AB7D138C62737388635C0D61D
:1008400033CC2B32708930E7DB2EE53C1E42A20D03
:1008500000803F00204100C842007A44401C4650BE
:10086000C34724744997184BBCBE4C6B6E4E03159E
:100870005079AD60F3497154455354455445535430
:100880004554455354452E537465703A252E34759E
:100890002025332E3166252500494E5445525255A8
:1008A000505420494E543000566F6C74733A2531C1
:1008B0002E37665600000001000E00010001BB6FDC
:1008C0000001A00E00010001BA6F7CEF0BF00001E7
:1008D0000001CE51250AD8B40DD09CC0D9FF9DC0CF
:1008E000DAFF0001CEC0DFFF000100019C4B9D2B11
:1008F0007CEF0BF0000E00010001C46F000E000140
:10090000C36F000E00010001C06F000E0001BF6F39
:1009100000019EC0F6FF00019FC0F7FF0800F550E0
:100920002FEC1DF0D8A04CD0000E00010001C46FC8
:10093000000E0001C36FC3C06AF0C4C06BF0000EAC
:10094000000100016D6F0A0E00016C6FB8EC1BF026
:1009500000016AC0C3F000016BC0C4F0D00E0001FA
:10096000A56FFF0EA66F00019EC0F6FF00019FC09D
:10097000F7FF0800F5500001A76FA86B0001A55113
:100980000001A7270001A6510001A8230001A751DB
:1009900000010001C3270001A85100010001C42388
:1009A000000100019E4B9F2B00019EC0F6FF00013D
:1009B0009FC0F7FF0800F5502FEC1DF0D8B0BBD753
:1009C00000019EC0F6FF00019FC0F7FF0800F55030
:1009D0002E0AD8A448D000010001C08D00010001FA
:1009E0009E4B9F2B000E00010001CD6F000E0001F9
:1009F000CC6F2CD0CCC06AF0CDC06BF0000E0001E3
:100A000000016D6F0A0E00016C6FB8EC1BF0000165
:100A10009EC0F6FF00019FC0F7FF0800F5500001DF
:100A200000016A27000E00016B23D00E00010001B7
:100A30006A2500010001CC6FFF0E000100016B214F
:100A40000001CD6F000100019E4B9F2B00019EC055
:100A5000F6FF00019FC0F7FF0800F5502FEC1DF0D6
:100A6000D8A096D0C7D7000E00010001CD6F000EB0
:100A70000001CC6F00010001C0898AD00001000193
:100A8000C085A1D000010001CD51CC11D8B412D045
:100A900000010001CA5100010001CC5D000100010C
:100AA000CB5100010001CD59D8B004D0CCC0CAF060
:100AB000CDC0CBF000010001C35100010001CA5DAF
:100AC00000010001C45100010001CB59D8B00CD085
:100AD000000120EECAF0DE5000010001C35FDD50CE
:100AE00000010001C45B12D0000E00010001C46FC0
:100AF000000E0001C36F0AD09CC0D9FF9DC0DAFF71
:100B0000200EDF6E000100019C4B9D2B00010001B7
:100B1000C307D8A0C4070001C329D8B4C429D8B4D6
:100B200013D0EAD7C8C0D9FFC9C0DAFF9CC0E1FF23
:100B30009DC0E2FFDFCFE7FF00010001C84BC92BDA
:100B4000000100019C4B9D2B00010001CA07D8A0A9
:100B5000CB070001CA29D8B4CB29D8B47CEF0BF05D
:100B6000E1D70001000E00010001C96F0001CE0EA7
:100B700000010001C86F000E00010001CB6F010EE3
:100B80000001CA6F7FD7C00E00010001BF131BD048
:100B900000019EC0F6FF00019FC0F7FF00010001A9
:100BA0009E4B9F2B08000001F5CFCEF00001CE51E7
:100BB000000AD8B48EEF0BF0660AD8B45FD7130AD8
:100BC000D8B4E1D7CED7070E00010001C015D8B4C4
:100BD000F4D300010001C0A907D0000E00010001FC
:100BE000CD6F060E0001CC6FBAC0D9FFBBC0DAFFD3
:100BF0000001DECFC5F00001DECFC6F00001DDCF81
:100C0000C7F0030E00010001BA27000E0001BB234C
:100C100000010001C751800A800F07E1000E0001AA
:100C2000C65D03E1000E0001C55DD8B012D0C5C09D
:100C30002DF0C6C02EF0C7C02FF044EC1DF02DC023
:100C4000C5F02EC0C6F02FC0C7F0030E0001000192
:100C5000BF13000E00010001C26F000E0001C16F42
:100C60007F0E00010001C7150001C6110001C5116A
:100C7000D8B4ABD0820E0001A56FFF0EA66F0001A5
:100C8000C5C0A7F00001C6C0A8F00001C7C0A9F008
:100C90000001C8C0AAF0100E06D00001D890AA33F7
:100CA000A933A833A733E82EF8D70001A7510001D4
:100CB000A52500010001C16F00010001000EA62161
:100CC000C26F00010001C107D8A0C207C1C06AF00D
:100CD000C2C06BF0000E000100016D6F030E000139
:100CE0006C6FB8EC1BF000016AC0C1F000016BC072
:100CF000C2F0C1C062F0C2C063F0000E000100018A
:100D0000656F0A0E0001646F46EC17F0000162C0C7
:100D1000C1F0000163C0C2F000010001C251800AAD
:100D2000F36E800EF35C000ED8B4C15DD8B005D070
:100D300000010001C107D8A0C20700010001C15194
:100D4000000895EC0BF086C0BCF087C0BDF088C0F1
:100D5000BEF00001000E00010001876F0001BC0E13
:100D600000010001866FC5C088F0C6C089F0C7C009
:100D70008AF07DEC1CF0BCC02DF0BDC02EF0BEC0D2
:100D80002FF0000E306E800E316E3F0E326E19EC79
:100D90001AF0D8B006D000010001C107D8A0C207E0
:100DA00014D0BCC02DF0BDC02EF0BEC02FF0000E80
:100DB000306E200E316E410E326E19EC1AF0D8A052
:100DC00004D000010001C14BC22B00010001CD5134
:100DD000800AF36E800EF35C0D0ED8B4CC5DD8B0F3
:100DE00017D00001000E00010001916F0001C50E37
:100DF00000010001906F00010001CC51BAEC11F02C
:100E000086C092F087C093F088C094F09EEC1CF0EE
:100E100000010001C251800AF36E800EF35C0A0EDD
:100E2000D8B4C15DD8B02BD07F0E00010001C7152A
:100E30000001C6110001C511D8B471D0C5C08DF034
:100E4000C6C08EF0C7C08FF08DEC16F08DC0A5F037
:100E50008EC0A6F08FC0A7F090C0A8F00001A851E6
:100E6000A511A611A711D8A45AD000010001C251A2
:100E7000800A800F020ED8B4C15DD8A050D0BCC08B
:100E80002DF0BDC02EF0BEC02FF0700E306E890E5A
:100E9000316E400E326E19EC1AF0D8B003D000015A
:100EA000F70E02D00001F80E0001C127FF0E00016D
:100EB000C22300010001C15195EC0BF086C0BCF0CB
:100EC00087C0BDF088C0BEF0C5C02DF0C6C02EF0F2
:100ED000C7C02FF0BCC030F0BDC031F0BEC032F092
:100EE000CDEC15F02DC0AEF02EC0AFF02FC0B0F09D
:100EF00030C0B1F0AEC0C8F0AFC0C9F0B0C0CAF0E9
:100F0000B1C0CBF0000E00010001C56F000E000162
:100F10000001C66F000E00010001C76F33D0C5C0CD
:100F20008DF0C6C08EF0C7C08FF08DEC16F08DC06E
:100F3000C8F08EC0C9F08FC0CAF090C0CBF00001DD
:100F4000000E00010001766F0001C50E00010001D6
:100F5000756FC8C063F0C9C064F0CAC065F0CBC08B
:100F600066F0B7EC1AF063C077F064C078F065C043
:100F700079F03BEC1CF0000E00010001C26F000E86
:100F80000001C16F0001A56F010E00010001CE6FCD
:100F90000001A55100010001CE510A0AD8B421D0A8
:100FA00000010001CE51040D010EF324F66E080E6F
:100FB000F420F76E0900F55000010001C85D09003A
:100FC000F5500001C9590900F5500001CA5909003E
:100FD000F5500001CB59D8A004D000010001CE2B60
:100FE000D9D70001CEC0A5F00001A66BA5BFA6070A
:100FF00000010001CC510001A52700010001CD51E5
:101000000001A62300010001C1510001A527000134
:101010000001C2510001A6230001A55100010001F9
:10102000C35F0001A65100010001C45B0001000183
:10103000CD51CC11D8B405D000010001C307D8A010
:10104000C407030E00010001BF150001A56F000ECB
:1010500000010001C0150001A66F0001A651A511F5
:10106000D8B410D00AD09CC0D9FF9DC0DAFF200EA2
:10107000DF6E000100019C4B9D2B00010001C307A6
:10108000D8A0C40700010001C451800AF36E800E8D
:10109000F35C010ED8B4C35DD8B0E5D7030E0001F0
:1010A0000001BF150001A56F000E00010001C01571
:1010B0000001A66F0001A651A511D8B45ED09CC056
:1010C000D9FF9DC0DAFF2D0E53D0C8C060F0C9C053
:1010D00061F0CAC062F0CBC063F000010001CE51E4
:1010E000040D010EF324F66E080EF420F76E0900CD
:1010F0000001F5CF64F009000001F5CF65F00900AB
:101100000001F5CF66F00A000001F5CF67F0DBECD7
:1011100017F060C0B2F061C0B3F062C0B4F063C059
:10112000B5F0B2C068F0B3C069F0B4C06AF0B5C041
:101130006BF00A0E000100016C6F000E00016D6F74
:10114000000E00016E6F000E00016F6F4CEC18F086
:1011500068C0B2F069C0B3F06AC0B4F06BC0B5F05B
:1011600000010001B251300F9CC0D9FF9DC0DAFFD1
:10117000DF6E000100019C4B9D2B00010001CE079A
:101180000001CE29D8B410D0A0D79CC0D9FF9DC0F3
:10119000DAFF300EDF6E000100019C4B9D2B000139
:1011A0000001C107D8A0C20700010001C251800A96
:1011B000F36E800EF35C010ED8B4C15DD8B0E5D7F4
:1011C00000010001CD51800A800F090ED8B4CC5D1A
:1011D000D8A009D00001A56F080E00010001CE6F54
:1011E0000001A55102D0CCC0CEF000010001CE51CB
:1011F00000010001CC5F000E0001CEBFFF0E000118
:101200000001CD5B00010001CE51D8B40AD09CC0D2
:10121000D9FF9DC0DAFF2E0EDF6E000100019C4B4E
:101220009D2B00010001CE5195EC0BF086C0ABF078
:1012300087C0ACF088C0ADF0C5C07AF0C6C07BF006
:10124000C7C07CF0ABC077F0ACC078F0ADC079F02F
:1012500049EC13F077C08DF078C08EF079C08FF034
:101260008DEC16F08DC0C8F08EC0C9F08FC0CAF0EA
:1012700090C0CBF084D0C8C060F0C9C061F0CAC0D3
:1012800062F0CBC063F000010001CE51040D010EED
:10129000F324F66E080EF420F76E09000001F5CF76
:1012A00064F009000001F5CF65F009000001F5CFF9
:1012B00066F00A000001F5CF67F0DBEC17F060C0C4
:1012C000B6F061C0B7F062C0B8F063C0B9F0B6C0A4
:1012D00068F0B7C069F0B8C06AF0B9C06BF00A0E28
:1012E000000100016C6F000E00016D6F000E000127
:1012F0006E6F000E00016F6F4CEC18F068C0B6F016
:1013000069C0B7F06AC0B8F06BC0B9F00001000165
:10131000B651300F9CC0D9FF9DC0DAFFDF6E0001CF
:1013200000019C4B9D2BC8C068F0C9C069F0CAC0C1
:101330006AF0CBC06BF000010001CE51040D010E2C
:10134000F324F66E080EF420F76E09000001F5CFC5
:101350006CF009000001F5CF6DF009000001F5CF38
:101360006EF00A000001F5CF6FF04CEC18F068C089
:10137000C8F069C0C9F06AC0CAF06BC0CBF0000108
:101380000001CE070001CE29D8B410D074D79CC07C
:10139000D9FF9DC0DAFF300EDF6E000100019C4BCB
:1013A0009D2B00010001CC07D8A0CD070001000152
:1013B000CD51CC11D8B4A0D1EAD7BAC0D9FFBBC0A7
:1013C000DAFFDECFA5F0DDCFA6F00001A5C0C8F0A2
:1013D0000001A6C0C9F000010001CA6B0001CB6B7F
:1013E000020E00010001BA27000E0001BB2300011C
:1013F0000001CD51CC11D8A40CD000010001CB517B
:10140000C811C911CA11D8A404D000010001CC4BE5
:10141000CD2B0001A56F010E00010001CE6F000170
:10142000A55100010001CE510A0AD8B421D0000113
:101430000001CE51040D010EF324F66E080EF420C7
:10144000F76E0900F55000010001C85D0900F55074
:101450000001C9590900F5500001CA590900F550A9
:101460000001CB59D8A004D000010001CE2BD9D760
:10147000800E00010001CEBF7F0EA56F00010001AC
:10148000CC5100010001CE5D00010001CD51800A68
:101490000001A559D8B003D0CCC0CEF020D00001B7
:1014A0000001CD51800A0001A56F00010001CE515D
:1014B00000010001CC5D800E00010001CEBF7F0E57
:1014C0000001A559D8B00BD000010001CE51000198
:1014D0000001CC6F0001CD6B0001CCBFCD07000136
:1014E0000001C451C311D8B416D0030E000100018D
:1014F000BF150001A56F000E00010001C01500011D
:10150000A66F0001A651A511D8B405D000010001B5
:10151000C307D8A0C40700010001C0AD28D0000156
:101520000001CD51800A0001A56F00010001C351E7
:1015300000010001CC5D00010001C451800A0001DE
:10154000A559D8B00DD000010001CC510001000117
:10155000C35F00010001CD5100010001C45B07D051
:10156000000E00010001C46F000E0001C36F800E69
:1015700000010001CEBF7F0EA56F00010001C35125
:1015800000010001CE5D00010001C451800A00018C
:10159000A559D8B00ED000010001CE5100010001C4
:1015A000C35F000E0001CEBFFF0E00010001C45B4F
:1015B00007D0000E00010001C46F000E0001C36FD0
:1015C00000010001C451C311D8B414D09CC0D9FF8C
:1015D0009DC0DAFF200EDF6E000100019C4B9D2BA9
:1015E00000010001C307D8A0C4070001C451C31102
:1015F000D8A4ECD7030E00010001BF150001A56FB0
:10160000000E00010001C0150001A66F0001A651E7
:10161000A511D8B466D09CC0D9FF9DC0DAFF2D0EAD
:10162000DF6E5BD00001CCC0A5F00001CDC0A6F0FC
:101630000001D890A537A6370001D890A537A63766
:10164000010E0001A525F66E080EA621F76E090011
:101650000001F5CF64F009000001F5CF65F0090045
:101660000001F5CF66F00A000001F5CF67F0C8C0B1
:1016700060F0C9C061F0CAC062F0CBC063F0DBECBF
:1016800017F060C068F061C069F062C06AF063C0C2
:101690006BF00A0E000100016C6F000E00016D6F0F
:1016A000000E00016E6F000E00016F6F4CEC18F021
:1016B00068C0A7F069C0A8F06AC0A9F06BC0AAF022
:1016C0000001A751300F00010001CE6F9CC0D9FF6F
:1016D0009DC0DAFF0001CEC0DFFF000100019C4B7E
:1016E0009D2B00010001CC07D8A0CD070001CC291B
:1016F000D8B4CD29D8A496D700019EC0F6FF00012A
:101700009FC0F7FF000100019E4B9F2B08000001C6
:10171000F5CFCEF00001CE6767EF04F09CC0D9FF93
:101720009DC0DAFF000EDF6E1200E8CF8CF00001E2
:1017300000018CAF4FD1000100018C6D0001000150
:101740008C51800A120FD8A0C4D0000E00010001F5
:101750006D6F030E00016C6F000E00010001656FDC
:101760000A0E0001646F000E306E640E2F6E0001D1
:1017700000018C512D6E2E6A2DBE2E066EEC19F0D6
:101780002DC062F02EC063F046EC17F0090E000188
:1017900000016225000100016A6F000E00010001D6
:1017A000632100016B6FB8EC1BF0290E00010001F2
:1017B0006A25F66E080E00016B21F76E0900000124
:1017C000F5CF7AF009000001F5CF7BF00A000001A7
:1017D000F5CF7CF0000E000100016D6F030E0001DB
:1017E0006C6F000E00010001656F640E0001646FF4
:1017F000000100018C5100010001626F0001636B68
:10180000000162BF630746EC17F0120E00010001F1
:101810006225000100016A6F000E000100016321D2
:1018200000016B6FB8EC1BF0290E000100016A2566
:10183000F66E080E00016B21F76E09000001F5CF6E
:1018400077F009000001F5CF78F00A000001F5CF2C
:1018500079F049EC13F077C089F078C08AF079C04C
:101860008BF089C077F08AC078F08BC079F0000ED9
:10187000000100016D6F030E00016C6F000E306EF1
:101880000A0E2F6E000100018C512D6E2E6A2DBEA6
:101890002E066EEC19F02DC06AF02EC06BF0B8EC7D
:1018A0001BF0290E000100016A25F66E080E0001EA
:1018B0006B21F76E09000001F5CF7AF009000001F5
:1018C000F5CF7BF00A000001F5CF7CF049EC13F076
:1018D000C3D1000100018C51800A750FD8A071D0CE
:1018E000000E000100016D6F030E00016C6F000E11
:1018F00000010001656F0A0E0001646F0001000124
:101900008C5100010001626F0001636B000162BF36
:10191000630746EC17F0090E000100016225000183
:1019200000016A6F000E00010001632100016B6F6E
:10193000B8EC1BF0290E000100016A25F66E080EB6
:1019400000016B21F76E09000001F5CF77F0090067
:101950000001F5CF78F00A000001F5CF79F0000E14
:10196000000100016D6F030E00016C6F000E306E00
:101970000A0E2F6E000100018C512D6E2E6A2DBEB5
:101980002E066EEC19F02DC06AF02EC06BF0B8EC8C
:101990001BF0290E000100016A25F66E080E0001F9
:1019A0006B21F76E09000001F5CF7AF00900000104
:1019B000F5CF7BF00A000001F5CF7CF049EC13F085
:1019C0004BD1000100018C51030D290EF324F66E5A
:1019D000080E51D1000100018C51800A120FD8A0CD
:1019E000C4D0000E000100016D6F030E00016C6F8A
:1019F000000E00010001656F0A0E0001646F000E09
:101A0000306E640E2F6E000100018C512D6E2E6A17
:101A10002DBE2E066EEC19F02DC062F02EC063F0C4
:101A200046EC17F0090E00010001622500010001DB
:101A30006A6F000E00010001632100016B6FB8ECBA
:101A40001BF0500E000100016A25F66E080E000121
:101A50006B21F76E09000001F5CF7AF00900000153
:101A6000F5CF7BF00A000001F5CF7CF0000E0001FD
:101A700000016D6F030E00016C6F000E000100018C
:101A8000656F640E0001646F000100018C5100015C
:101A90000001626F0001636B000162BF630746ECE7
:101AA00017F0120E000100016225000100016A6FAB
:101AB000000E00010001632100016B6FB8EC1BF008
:101AC000500E000100016A25F66E080E00016B2120
:101AD000F76E09000001F5CF77F009000001F5CF9E
:101AE00078F00A000001F5CF79F049EC13F077C0E7
:101AF00089F078C08AF079C08BF089C077F08AC00D
:101B000078F08BC079F0000E000100016D6F030EBC
:101B100000016C6F000E306E0A0E2F6E0001000186
:101B20008C512D6E2E6A2DBE2E066EEC19F02DC036
:101B30006AF02EC06BF0B8EC1BF0500E00010001F3
:101B40006A25F66E080E00016B21F76E0900000190
:101B5000F5CF7AF009000001F5CF7BF00A00000113
:101B6000F5CF7CF049EC13F077D0000100018C51E7
:101B7000800A750FD8A077D0000E000100016D6FAC
:101B8000030E00016C6F000E00010001656F0A0E6C
:101B90000001646F000100018C5100010001626FBF
:101BA0000001636B000162BF630746EC17F0090E8A
:101BB000000100016225000100016A6F000E0001B2
:101BC0000001632100016B6FB8EC1BF0500E0001A7
:101BD00000016A25F66E080E00016B21F76E090000
:101BE0000001F5CF77F009000001F5CF78F00A0089
:101BF0000001F5CF79F0000E000100016D6F030EBA
:101C000000016C6F000E306E0A0E2F6E0001000195
:101C10008C512D6E2E6A2DBE2E066EEC19F02DC045
:101C20006AF02EC06BF0B8EC1BF0500E0001000102
:101C30006A25F66E080E00016B21F76E090000019F
:101C4000F5CF7AF009000001F5CF7BF00A00000122
:101C5000F5CF7CF049EC13F077C086F078C087F0C0
:101C600079C088F016D0000100018C51030D500E90
:101C7000F324F66E080EF420F76E09000001F5CF8C
:101C800086F009000001F5CF87F00A000001F5CFCA
:101C900088F01200000E00010001E86F000E000144
:101CA000E76F000E00010001E16F000E0001E06F20
:101CB000CFEC1DF0FFEC1AF019EC1CF0A9EC1DF0B4
:101CC000C1EC1DF0C8EC19F00001CF6F010E2F6EB2
:101CD0000001CF51020EDCEC1CF0CDEC1DF0B6EC97
:101CE0001DF00009D8A4FBD7BCEC1DF02DC0E7F017
:101CF0002EC0E8F000010001E15100010001E819E7
:101D000006E100010001E05100010001E719D8B42B
:101D10007CD1C5EC1DF00001CF6F010E2F6E0001CC
:101D2000CF51010EDCEC1CF00001000E2E6E000104
:101D3000D00E2D6E000E306E000E2F6E000E326E25
:101D4000100E316E15EC1DF0C00E000100016B6F1E
:101D50007F0E000100016C6F440E000100016D6FE9
:101D6000E7C063F0E8C064F0F9EC1CF063C068F011
:101D700064C069F065C06AF000EC15F068C077F0E7
:101D800069C078F06AC079F0000E000100017A6F36
:101D9000C80E000100017B6F420E000100017C6F44
:101DA00049EC13F077C0E2F078C0E3F079C0E4F0DA
:101DB0000001000E000100019D6F0001D00E000126
:101DC00000019C6F080E000100019F6F870E00014B
:101DD00000019E6FE7C0A0F0E8C0A1F0E2C0A2F051
:101DE000E3C0A3F0E4C0A4F05BEC04F00001000E3B
:101DF0002E6E0001D00E2D6EBFEC1CF0110E2D5C6E
:101E0000000E2E58D8B00DD00001000E2E6E00012D
:101E1000D00E2D6EBFEC1CF02DC0E5F02EC0E6F00C
:101E200007D0000E00010001E66F100E0001E56F03
:101E30000001000E306E0001D00E2F6EE5C031F0B3
:101E400013EC19F0000E00010001EA6F000E000112
:101E5000E96F15D0ACA2FED70001D00E0001000141
:101E6000E925D96E0001000E00010001EA21DA6EB9
:101E7000DF508FEC1DF000010001E94BEA2B00015F
:101E80000001EA51800A0001CF6F0001E551000115
:101E90000001E95D00010001E651800A0001CF590F
:101EA000D8A0D8D70001CF6F010E2F6E0001CF51FF
:101EB000020EDCEC1CF00001000E2E6E0001D00EB4
:101EC0002D6E000E306E000E2F6E000E326E100E54
:101ED000316E15EC1DF0E7C063F0E8C064F0F9EC7A
:101EE0001CF063C077F064C078F065C079F0280E0C
:101EF000000100017A6FA00E000100017B6F3B0E14
:101F0000000100017C6F49EC13F077C0E2F078C06B
:101F1000E3F079C0E4F00001000E000100019D6FC4
:101F20000001D00E000100019C6F080E00010001AD
:101F30009F6FA80E000100019E6FE2C0A0F0E3C0F9
:101F4000A1F0E4C0A2F05BEC04F00001000E2E6EE4
:101F50000001D00E2D6EBFEC1CF0110E2D5C000E9A
:101F60002E58D8B00DD00001000E2E6E0001D00EFC
:101F70002D6EBFEC1CF02DC0E5F02EC0E6F007D0B2
:101F8000000E00010001E66F100E0001E56F000178
:101F9000000E306E0001D00E2F6EE5C031F013EC54
:101FA00019F0E7C0E0F0E8C0E1F0000E0001000128
:101FB000EA6F000E0001E96F15D0ACA2FED7000158
:101FC000D00E00010001E925D96E0001000E0001CC
:101FD0000001EA21DA6EDF508FEC1DF000010001F4
:101FE000E94BEA2B00010001EA51800A0001CF6FA2
:101FF0000001E55100010001E95D00010001E65129
:10200000800A0001CF59D8A0D8D7000E00010001E6
:10201000EA6F000E0001E96F00010001EA51800A39
:10202000800F280ED8B4E95DD8B057D69C0E0001B9
:10203000CF6FD70EE82EFED7CF2FFCD700F00001D0
:102040000001E94BEA2BE8D7000165C069F0000107
:102050006A6B6B6B0001000164350001693701E3B5
:102060006A8100016951000100016E6F000168C0C2
:1020700069F000016A6B6B6B0001000167350001BC
:10208000693701E36A8100016951000100016D6F48
:10209000000100016E51D8B416D0000100016D514D
:1020A000000100016E5DD8B015D0000100016E5135
:1020B0000008000100016D250001696F190E000183
:1020C000695DD8A007D066C063F067C064F068C0DF
:1020D00065F04FD1000100016D51D8B416D0000158
:1020E00000016E51000100016D5DD8B015D00001F6
:1020F00000016D510008000100016E250001696FAB
:10210000190E0001695DD8A007D063C063F064C0F8
:1021100064F065C065F02DD10001696F060E000105
:1021200000016C6F000169510001000165AF03D02F
:10213000000100016C8F0001000168AF03D00001B5
:1021400000016C8D00010001648FFF0E0001000191
:102150006317FF0E000100016417000E000100016B
:10216000651700010001678FFF0E0001000166176F
:10217000FF0E000100016717000E00010001681743
:10218000000100016D51000100016E5DD8B031D039
:102190000001D890000166370001673700016837F9
:1021A000000100016D07000100016D5100010001F7
:1021B0006E19D8B416D0000100016C076CC069F02C
:1021C000070E00016917D8B40CD0E2D70001D890EF
:1021D0000001653300016433000163330001000135
:1021E0006E2B000100016D51000100016E63EED7FE
:1021F00038D0000100016E51000100016D5DD8B0C2
:1022000030D00001D890000163370001643700012D
:102210006537000100016E07000100016D510001EA
:1022200000016E19D8B416D0000100016C076CC013
:1022300069F0070E00016917D8B40CD0E2D700018D
:10224000D890000168330001673300016633000154
:1022500000016D2B000100016D51000100016E6352
:10226000EED7000100016CAF18D0FF0E0001000195
:10227000631BFF0E00010001641BFF0E0001000143
:10228000651B010E000100016327000E0001000123
:102290006423000E000100016523000100016CAD04
:1022A00018D0FF0E00010001661BFF0E00010001A7
:1022B000671BFF0E00010001681B010E00010001F9
:1022C0006627000E000100016723000E00010001D7
:1022D00068230001696F000E000100016C6F0001AE
:1022E00069510001000163510001000166270001EE
:1022F00000016451000100016723000100016551E4
:102300000001000168230001000168AF20D0FF0E2A
:1023100000010001661BFF0E00010001671BFF0E9C
:1023200000010001681B010E000100016627000E7C
:10233000000100016723000E000100016823000175
:10234000696F010E000100016C6F0001695166C0E8
:102350002DF067C02EF068C02FF06EC030F06CC05A
:1023600031F0B7EC18F02DC063F02EC064F02FC030
:1023700065F01200E8CF8FF06D0E000100018F654F
:10238000D4D0000E000100016D6F030E00016C6FD0
:10239000000E00010001656F0A0E0001646F000E5F
:1023A000306E640E2F6E00018FC02DF02E6A6EEC21
:1023B00019F02DC062F02EC063F046EC17F0090E44
:1023C000000100016225000100016A6F000E00019A
:1023D0000001632100016B6FB8EC1BF0290E0001B6
:1023E00000016A25F66E080E00016B21F76E0900E8
:1023F0000001F5CF7AF009000001F5CF7BF00A006B
:102400000001F5CF7CF0000E000100016D6F030E9E
:1024100000016C6F000E00010001656F640E000189
:10242000646F000100018FC062F000010001636B66
:1024300046EC17F0120E00010001622500010001B8
:102440006A6F000E00010001632100016B6FB8ECA0
:102450001BF0290E000100016A25F66E080E00012E
:102460006B21F76E09000001F5CF77F0090000013C
:10247000F5CF78F00A000001F5CF79F049EC13F0C0
:1024800077C08CF078C08DF079C08EF0000E00011E
:1024900000016D6F030E00016C6F000E306E0A0EAE
:1024A0002F6E00018FC02DF02E6A6EEC19F02DC03A
:1024B0006AF02EC06BF0B8EC1BF0290E0001000191
:1024C0006A25F66E080E00016B21F76E0900000107
:1024D000F5CF7AF009000001F5CF7BF00A0000018A
:1024E000F5CF7CF08CC077F08DC078F08EC079F09D
:1024F00049EC13F077C089F078C08AF079C08BF08E
:1025000089C077F08AC078F08BC079F0000E0001A6
:1025100000017A6F000E000100017B6F3F0E000189
:1025200000017C6F49EC13F0ADD00A0E00010001F0
:102530008F6584D0000E000100016D6F030E000155
:102540006C6F000E306E0A0E2F6E00018FC02DF0E2
:102550002E6A6EEC19F02DC06AF02EC06BF0B8EC4C
:102560001BF0290E000100016A25F66E080E00011D
:102570006B21F76E09000001F5CF7AF00900000128
:10258000F5CF7BF00A000001F5CF7CF0000E0001D2
:1025900000016D6F030E00016C6F000E0001000161
:1025A000656F0A0E0001646F000100018FC062F0C8
:1025B00000010001636B46EC17F0090E00010001F9
:1025C0006225000100016A6F000E00010001632115
:1025D00000016B6FB8EC1BF0290E000100016A25A9
:1025E000F66E080E00016B21F76E09000001F5CFB1
:1025F00077F009000001F5CF78F00A000001F5CF6F
:1026000079F049EC13F077C08CF078C08DF079C088
:102610008EF08CC077F08DC078F08EC079F0000E0F
:10262000000100017A6F000E000100017B6F3F0E78
:10263000000100017C6F49EC13F024D0000100017F
:102640008F51030D290EF324F66E080EF420F76E59
:1026500009000001F5CF77F009000001F5CF78F00F
:102660000A000001F5CF79F0000E000100017A6F39
:10267000000E000100017B6F3F0E000100017C6F26
:1026800049EC13F077C086F078C087F079C088F005
:102690001200000179C07DF000017E6B7F6B0001AC
:1026A0000001783500017D3701E37E8100017D5115
:1026B00000010001806F0001806701D015D000018A
:1026C0007CC07DF000017E6B7F6B000100017B35DB
:1026D00000017D3701E37E8100017D510001000191
:1026E000856F000185670DD0000E00010001776F36
:1026F000000E00010001786F000E00010001796FEB
:10270000A7D00001000185517B0F00010001802747
:1027100079C085F0000100017C5100010001851B9A
:10272000800E00010001851700010001788F000173
:1027300000017B8FFF0E000100017A17FF0E0001E0
:1027400000017B17000E000100017C17000E000144
:102750000001816F000E00010001826F000E000178
:102760000001836F00017D6F070E00010001846F7F
:1027700000017D510001000177A112D0000100018C
:102780007A51000100018127000100017B51000105
:1027900000018223000100017C510001000183231C
:1027A0000001D890000179330001783300017733BC
:1027B0000001D89000017A3700017B3700017C3797
:1027C00000010001842FD6D700017D6F090E0001A2
:1027D0000001846F00017D510001000177A112D03A
:1027E000000100017A510001000181270001000170
:1027F0007B51000100018223000100017C51000196
:10280000000183230001D89000017933000178335F
:10281000000177330001D890000183330001823337
:102820000001813300010001842FD6D781C02DF033
:1028300082C02EF083C02FF080C030F085C031F010
:10284000B7EC18F02DC077F02EC078F02FC079F0DB
:1028500012002DC060F02EC061F02FC062F030C0B9
:1028600063F0180E06D00001D890633362336133F1
:102870006033E82EF8D70001605100010001696F54
:102880000001696701D099D030C060F031C061F0BB
:1028900032C062F033C063F0180E06D00001D89049
:1028A0006333623361336033E82EF8D7000160513F
:1028B00000010001686F0001686701D07ED02F8E93
:1028C000FF0E2D16FF0E2E16FF0E2F16000E3016C1
:1028D000328EFF0E3016FF0E3116FF0E3216000E2E
:1028E0003316000E00010001646F000E0001656FD9
:1028F000000E0001666F000E0001676F7F0E000181
:102900000001695F000100016851A00F0001000192
:10291000695F0001606F200E00010001686F000117
:1029200060510001D8900001643700016537000153
:1029300066370001673730502D5C31502E583250C9
:102940002F5833503058D8A00BD030502D5E315016
:102950002E5A32502F5A3350305A000100016481F0
:10296000D8902D362E362F36303600010001682FD4
:10297000D8D70001000169AF1BD0000100016951E7
:10298000800A0001606FE10E800A0001605DD8A03E
:1029900014D00001D89000016733000166330001B4
:1029A00065330001643300010001693FF2D71FD095
:1029B0001F0E00010001696516D0000E2D6E000E7D
:1029C0002E6E000E2F6E000E306E19D00001D890C2
:1029D0000001643700016537000166370001673781
:1029E000000100016907000100016967EFD764C0B9
:1029F0002DF065C02EF066C02FF067C030F01200D9
:102A000000016AC06EF000016F6B706B0001000185
:102A1000693500016E3701E36F8100016E510001DD
:102A20000001756F0001756701D015D000016DC000
:102A30006EF000016F6B706B000100016C350001DE
:102A40006E3701E36F8100016E5100010001766F66
:102A5000000176670DD0000E00010001686F000EC6
:102A600000010001696F000E000100016A6F94D03F
:102A7000000E00010001726F000E00010001736F73
:102A8000000E00010001746F000100017651890FF2
:102A900000010001755F6AC076F0000100016D5110
:102AA00000010001761B800E000100017617000175
:102AB0000001698FFF0E000100016817FF0E000181
:102AC00000016917000E000100016A1700010001F2
:102AD0006C8FFF0E000100016B17FF0E000100015B
:102AE0006C17000E000100016D1700016E6F180ECB
:102AF00000010001716F00016E510001D8900001CA
:102B000072370001733700017437000100016B5107
:102B100000010001685D000100016C51000100012D
:102B20006959000100016D51000100016A59D8A0E6
:102B300015D0000100016B5100010001685F000128
:102B400000016C5100010001695B000100016D5141
:102B5000000100016A5B0001000172810001D89050
:102B6000000168370001693700016A370001000180
:102B7000712FC3D772C02DF073C02EF074C02FF028
:102B800075C030F076C031F0B7EC18F02DC068F0A9
:102B90002EC069F02FC06AF012002FC060F0000153
:102BA000616B626B00012E340001603701E36181CB
:102BB0000001605100010001686F0001686701D0E9
:102BC00089D032C060F00001616B626B000131346A
:102BD0000001603701E361810001605100010001E3
:102BE000676F0001676701D075D02E8EFF0E2D161E
:102BF000FF0E2E16000E2F16318EFF0E3016FF0E12
:102C00003116000E3216000E00010001636F000E37
:102C10000001646F000E0001656F000E0001666F19
:102C20007F0E00010001685F000100016751980FED
:102C300000010001685F0001606F180E00010001D3
:102C4000676F000160510001D890000163370001F7
:102C50006437000165370001663730502D5C315014
:102C60002E5832502F58D8A009D030502D5E3150F8
:102C70002E5A32502F5A000100016381D8902D3610
:102C80002E362F3600010001672FDDD7000100012D
:102C900068AF1BD0000100016851800A0001606F1D
:102CA000E90E800A0001605DD8A014D00001D89020
:102CB00000016633000165330001643300016333B2
:102CC00000010001683FF2D71FD0170E000100017C
:102CD000686516D0000E2D6E000E2E6E000E2F6E43
:102CE000000E306E19D00001D8900001633700014A
:102CF000643700016537000166370001000168078D
:102D0000000100016867EFD763C02DF064C02EF0AA
:102D100065C02FF066C030F0120000018FC091F046
:102D20000001926B936B000100018E350001913719
:102D300001E3928100019151000100019B6F0001AC
:102D40009B6701D066D0170E0001916F00018DC006
:102D500092F000018EC093F000018FC094F000014A
:102D600091290001956F05D00001D89094339333D9
:102D700092330001952FF8D7000192510001000114
:102D8000966F000100018E8FFF0E000100018D176C
:102D9000FF0E000100018E17000E000100018F17C9
:102DA000000100018D5100010001976F0001000139
:102DB0008E510001986F00018F510001996F000141
:102DC0009A6B8E0E000100019B5F000100019BAF1A
:102DD0001BD0000100019B51800A0001916FF10E90
:102DE000800A0001915DD8A014D00001D8900001A4
:102DF0009A330001993300019833000197330001A1
:102E000000019B3FF2D724D0170E000100019B6503
:102E10001BD0000E000100018D6F000E00018E6FAF
:102E2000000E00018F6F000E0001906F2ED0000188
:102E3000D8900001973700019837000199370001B9
:102E40009A37000100019B07000100019B67EFD743
:102E5000000100019651D8B410D0000100019A1F62
:102E60000001991F0001981F0001976D000E0001DD
:102E700098230001992300019A2397C08DF098C0F0
:102E80008EF099C08FF09AC090F01200326E000E52
:102E900000010001676F3250000100016551800A96
:102EA000F36E800EF35C000ED8B4645DD8B00DD024
:102EB00000010001646D0001651FD8B0652B326E02
:102EC000010E00010001676F3250000100016351E3
:102ED000800AF36E800EF35C000ED8B4625DD8B049
:102EE0000BD000010001626D0001631FD8B0632B9D
:102EF000010E00010001671B000E00010001696F57
:102F0000000E0001686F0001000165516411D8B422
:102F100041D0326E010E00010001666F325009D0BF
:102F2000000100010001D8906437653700010001FD
:102F3000662B0001000165AFF3D70001000100011D
:102F4000D890683769370001000164510001000121
:102F5000625D000100016551000100016359D8A0C4
:102F60000FD000010001645100010001625F000107
:102F70000001655100010001635B000100016881EF
:102F8000000100010001D8906533643300010001A5
:102F9000662FD3D7000100016751D8B407D00001D4
:102FA0000001686D0001691FD8B0692B68C062F02C
:102FB00069C063F01200000E2E6E000E2F6E000E20
:102FC000306E000E316E0001000167516411651111
:102FD0006611D8B458D02D6E010E326E2D500BD024
:102FE0000001D890000164370001653700016637A1
:102FF00000016737322A0001000167AFF1D7D8908E
:103000002E362F3630363136000100016451000172
:103010000001605D0001000165510001000161597E
:103020000001000166510001000162590001000128
:103030006751000100016359D8A019D000010001B7
:10304000645100010001605F000100016551000151
:103050000001615B00010001665100010001625B3B
:1030600000010001675100010001635B2E80000137
:10307000D890000167330001663300016533000119
:103080006433322EBCD72EC060F02FC061F030C048
:1030900062F031C063F01200000100016F516C1149
:1030A0006D116E11D8B45AD00001706F010E00017D
:1030B0000001716F000170510DD00001D890000126
:1030C0006C3700016D3700016E3700016F3700016A
:1030D0000001712B000100016FAFEFD7000100016B
:1030E0006C5100010001685D000100016D5100019B
:1030F00000016959000100016E51000100016A5987
:10310000000100016F51000100016B59D8A018D0D7
:10311000000100016C5100010001685F0001000125
:103120006D5100010001695B000100016E51000159
:1031300000016A5B000100016F51000100016B5B3F
:103140000001D89000016F3300016E3300016D3330
:1031500000016C3300010001712FC0D768C068F016
:1031600069C069F06AC06AF06BC06BF01200305041
:10317000D8B405D02D502E102F10D8A40CD0000E8E
:103180002D6E000E2E6E000E2F6E4CD0302AD89071
:103190002F322E322D32000E2D140001606F000EE2
:1031A0002E140001616FFE0E2F140001626F0001EA
:1031B000605161116211D8B40CD0E8D7302A010EE9
:1031C0002D26000E2E22000E2F22D8902F322E32C6
:1031D0002D32000E2D140001606F000E2E14000120
:1031E000616FFF0E2F140001626F000160516111C9
:1031F0006211D8B406D0E2D73006D8902D362E36DC
:103200002F362EAEF9D730A02E9ED89030323050C7
:103210002F123150D8A42F8E2DC02DF02EC02EF09D
:103220002FC02FF01200000E00010001666F000E8B
:103230000001656F110E315CD8A006D00001606FEF
:10324000100E316E00016051000131C063F00001C9
:103250000001646B63C031F0000E00010001666F75
:10326000000E0001656F24D02FC060F030C061F007
:103270000001000165510001602700010001665155
:103280000001612360C0F6FF61C0F7FFF86A070E16
:10329000F76403D00800F55005D0F6CFE9FFF7CF6B
:1032A000EAFFEF5063EC1DF000010001654B662B57
:1032B00031500001606F616B000100016651800AAE
:1032C0000001626F605100010001655D0001615104
:1032D000800A00016259D8B01200C6D7316E000EC4
:1032E00000010001616F31502E50800AF36E800E94
:1032F000F35C000ED8B42D5CD8B00AD02D6C2E1E15
:10330000D8B02E2A316E010E00010001616F3150DC
:103310003050800AF36E800EF35C000ED8B42F5C40
:10332000D8B004D02F6C301ED8B0302A30502F10B7
:10333000D8B420D0316E010E00010001606F315011
:1033400006D0D8902F36303600010001602B30AE09
:10335000F8D72F502D5C30502E58D8A004D02F50C5
:103360002D5E30502E5AD89030322F32000100019D
:10337000602FEFD7000100016151D8B404D02D6C4B
:103380002E1ED8B02E2A2DC02DF02EC02EF01200E9
:10339000770EF66E080EF76E20EE60F0100E090044
:1033A000F5CFDEFFE82EFBD7000E00010001716FA4
:1033B000010E0001706F000100017151800A800F41
:1033C000030ED8B4705DD8B033D0326E010E2F6EBC
:1033D0003250000100017051DCEC1CF0000E0001C5
:1033E0000001736F000E0001726F00010001735144
:1033F000800A800F100ED8B4725DD8B014D00001CE
:10340000600E000100017225D96E0001000E00015E
:1034100000017321DA6EDF5063EC1DF00001000142
:10342000724B732BE2D700010001704B712BC3D795
:1034300012002FAE1AD02DC060F02EC061F02FC048
:1034400062F00001601F611F621F602B000E61238C
:103450006223000E000160252D6E000E0001612127
:103460002E6E800E000162212F6E32AE1AD030C057
:1034700060F031C061F032C062F00001601F611F76
:10348000621F602B000E61236223000E0001602585
:10349000306E000E00016121316E800E000162214C
:1034A000326E000E2D1A000E2E1A800E2F1A000EEC
:1034B000301A000E311A800E321A30502D5C315005
:1034C0002E5832502F58D8B002D0D89001D0D88082
:1034D00012000600E9CF21F0EACF22F0E1CF23F07D
:1034E000E2CF24F0D9CF25F0DACF26F0F3CF27F0C2
:1034F000F4CF28F0F6CF29F0F7CF2AF0F8CF2BF051
:10350000F5CF2CF0F2B2F2A815D0C9EC1DF0080EE0
:10351000156E990E146E1E6E0E0E166E1E5043EC36
:103520001BF09C0E1E6ED70EE82EFED71E2EFCD76B
:1035300000F0F2922CC0F5FF2BC0F8FF2AC0F7FF75
:1035400029C0F6FF28C0F4FF27C0F3FF26C0DAFF2A
:1035500025C0D9FF24C0E2FF23C0E1FF22C0EAFF5B
:1035600021C0E9FF20C0FBFF1FC0FAFF11000001CE
:10357000676F8E0E326E000167510BD00001D8903C
:1035800000016633000165330001643300016333D9
:10359000322A000E0001000163150001676F000E62
:1035A0000001000164150001686F000E00010001B8
:1035B00065150001696FFF0E00010001661500012D
:1035C0006A6F00016A51671168116911D8A4D6D7D2
:1035D00063C02DF064C02EF065C02FF032C030F013
:1035E0000001676F000E316E00016751B7EC18F0F3
:1035F0002DC063F02EC064F02FC065F01200010EE4
:10360000926E010E936E000E946E000E956E000E7B
:10361000966E0F0EC16E070EB46E000E806E000E19
:10362000816E000E826E000E836E000E846EF19C21
:10363000F180F292F288D08EF28EF29C0001606FDF
:10364000040E2D6E000160510001616FFE0E2E6EA2
:1036500000016151D30EE9EC1BF0870E57EC1DF011
:10366000100E0001606F940EE82EFED7602FFCD77D
:1036700000D0949C948E000E2E6E9B0E2D6E3C0EF0
:1036800083EC1BF01200000E1D6E000E1C6E110E5E
:10369000165CD8A004D0176E100E166E175016C008
:1036A0001AF01B6A1AC016F0000E1D6E000E1C6E7A
:1036B0001CD014C017F015C018F01C5017261D5050
:1036C000182217C0F6FF18C0F7FFF86A070EF76454
:1036D00003D00800F55005D0F6CFE9FFF7CFEAFF99
:1036E000EF5079EC1DF01C4A1D2A1650176E186A0F
:1036F0001D50800A196E17501C5C1850800A19580A
:10370000D8B01200D6D7E8CF32F0000EAC6E000E63
:10371000AB6E32B0AC8832A202D0AC8CAB8C32B47F
:10372000AC8E32A602D0AB8801D0AB8A32B8AC8462
:103730009E9832BAAB8632AC02D09D8A01D09D9A57
:103740009E9A32AE02D09D8801D09D982DC0AFFFC9
:103750002EC02FF02FC030F0316A3050B06EAC8ADE
:10376000AB8E949C948EACB8ACBE01D0948C1200FD
:10377000000100016A51000100016C03F3CF6EF0FB
:10378000F4CF6FF0000100016A51000100016D03E8
:10379000F3CFF4FFF36AF350000100016E27F450F9
:1037A000000100016F23000100016B5100010001C5
:1037B0006C03F3CFF4FFF36AF350000100016E27AE
:1037C000F450000100016F236EC06AF06FC06BF00F
:1037D0001200E8CF31F0000EC26E000EC06ED8901D
:1037E0002D303C0BC26E2DC02FF02F3AF00E2F164D
:1037F000300E2F162E500F0B2F10C16E31C02FF030
:10380000D8902F36D8902F36380E2F1631C030F082
:10381000303A0F0E3016070E30163150800B301034
:103820002F10C06E2DAE03D09E9C9D8CF28CC2805A
:103830001200929292949296000E956E9C0E2E6EAD
:10384000D70EE82EFED72E2EFCD700F0010E836E89
:10385000A9EC1DF0380E836EA9EC1DF00E0E836EE0
:10386000A9EC1DF0060E836EA9EC1DF0800E836E90
:10387000A9EC1DF0120075C0D9FF76C0DAFF000177
:10388000DECF6FF00001DECF70F00001DDCF71F010
:1038900077C072F078C073F079C074F05CEC1CF003
:1038A00075C0D9FF76C0DAFF6FC0DEFF70C0DEFFE3
:1038B00071C0DDFFDD521200000E00010001721B1D
:1038C000000E00010001731B800E00010001741B3B
:1038D0006FC063F070C064F071C065F072C066F0D4
:1038E00073C067F074C068F024EC10F063C06FF030
:1038F00064C070F065C071F0120086C0D9FF87C047
:10390000DAFF0001DECF77F00001DECF78F00001B2
:10391000DDCF79F088C07AF089C07BF08AC07CF076
:1039200049EC13F086C0D9FF87C0DAFF77C0DEFF0D
:1039300078C0DEFF79C0DDFFDD52120090C0D9FFF4
:1039400091C0DAFF0001DECF63F00001DECF64F04A
:103950000001DDCF65F092C066F093C067F094C0BF
:1039600068F024EC10F090C0D9FF91C0DAFF63C07A
:10397000DEFF64C0DEFF65C0DDFFDD5212002EC039
:1039800032F02DC031F002D0314A322A31C0D9FF95
:1039900032C0DAFFDF50D8A4F7D72DC02FF02EC0E9
:1039A00030F02F1E301E2F4A302A31502F242D6E1A
:1039B000325030202E6E1200E8CF31F0020E315C12
:1039C000D8B003D0306E800E05D0010E316404D023
:1039D000306EC00E316E3050010E2F6406D0110EC5
:1039E0002F5CD8B002D02F50312631506EEC1DF034
:1039F0001200000163C02DF0000164C02EF02F6A98
:103A00000001666F8E0E306E000166510001676F17
:103A1000000E316E00016751B7EC18F02DC063F055
:103A20002EC064F02FC065F0120000012EC061F0BE
:103A300000012DC060F00AD060C0D9FF61C0DAFF7C
:103A40002FC0DFFF00010001604B612B3106D8A0C1
:103A500032063128D8B43228D8B41200EDD7E8CFD6
:103A60002FF02D6E000E2E6E2D503A0E2F5CD8B01A
:103A700007D02F0E2F6404D02D6E010E2E6E2D5008
:103A80002EC02DF02D3012007F0E2F142E102D1071
:103A9000D8B406D0000E2D1A000E2E1A800E2F1A42
:103AA0002DC02DF02EC02EF02FC02FF01200E8CF29
:103AB0002EF0C2CF2DF0C30E2D16D8902E303C0B19
:103AC0002D10C26E1200E8CF2EF02EC083FF808230
:103AD0008094809699EC1DF080861200E8CF2EF03D
:103AE0002EC083FF80928094809699EC1DF0808692
:103AF0001200E8CF13F013C083FF80828094809679
:103B0000A1EC1DF080861200E8CF13F013C083FFF4
:103B1000809280948096A1EC1DF080861200E8CF00
:103B20002DF0ACAC03D0AC9033B2AC802DC0ADFF67
:103B30001200200E2D6E2A0EE82EFED72D2EFCD759
:103B40001200200E126E2A0EE82EFED7122EFCD77F
:103B5000120080928094809699EC1DF0808612006D
:103B6000336A000EF86E00014AEF0EF0C2A202D0D6
:103B7000010E01D0000E1200C4502E6EC3502D6EE7
:103B800012000C0E6EEC1DF01200010E6EEC1DF01A
:103B90001200010E84EC1DF01200C282120012000D
:020000040020DA
:08000000FFFFFFFFFFFFFFFF00
:020000040030CA
:0E000000244E3E1EFF8385FF0FC00FE00F4011
:00000001FF
