:0400000051EF00F0CC
:0C000800FACF1FF0FBCF20F062ED04F0F7
:10001800D8CF01F0E8CF02F0E0CF03F0FACF04F038
:10002800FBCF05F0E9CF06F0EACF07F0E1CF08F003
:10003800E2CF09F0D9CF0AF0DACF0BF0F3CF0CF00A
:10004800F4CF0DF0F6CF0EF0F7CF0FF0F8CF10F099
:10005800F5CF11F011C0F5FF10C0F8FF0FC0F7FF82
:100068000EC0F6FF0DC0F4FF0CC0F3FF0BC0DAFFA3
:100078000AC0D9FF09C0E2FF08C0E1FF07C0EAFFD4
:1000880006C0E9FF05C0FBFF04C0FAFF03C0E0FF9C
:0E00980002C0E8FF01C0D8FF10009AEF05F08B
:100800000054455354455445535445544553544559
:100810002E494E5445525255505420494E543000A2
:100820000000010EF66E080EF76E20EE60F0100E5E
:100830000900F5CFDEFFE82EFBD7000E0001000116
:10084000716F010E0001706F000100017151800A8B
:10085000800F030ED8B4705DD8B033D0326E010E65
:100860002F6E325000010001705126EC05F0000E91
:1008700000010001736F000E0001726F00010001A2
:100880007351800A800F100ED8B4725DD8B014D0A6
:100890000001600E000100017225D96E0001000EFA
:1008A000000100017321DA6EDF5057EC05F0000102
:1008B0000001724B732BE2D700010001704B712BCA
:1008C000C3D712000600E9CF21F0EACF22F0E1CF32
:1008D00023F0E2CF24F0D9CF25F0DACF26F0F3CF02
:1008E00027F0F4CF28F0F6CF29F0F7CF2AF0F8CF91
:1008F0002BF0F5CF2CF0F2B2F2A814D0A3EC05F057
:10090000080E156E110E146E1E6E0E0E166E1E5013
:10091000AFEC04F0820E1E6EDE0EE82EFED71E2E09
:10092000FCD7F2922CC0F5FF2BC0F8FF2AC0F7FFCE
:1009300029C0F6FF28C0F4FF27C0F3FF26C0DAFF66
:1009400025C0D9FF24C0E2FF23C0E1FF22C0EAFF97
:1009500021C0E9FF20C0FBFF1FC0FAFF1100000EFD
:100960001D6E000E1C6E110E165CD8A004D0176E02
:10097000100E166E175016C01AF01B6A1AC016F029
:10098000000E1D6E000E1C6E12D014C017F015C0A4
:1009900018F01C5017261D50182217C0F6FF18C05B
:1009A000F7FF0800F5506DEC05F01C4A1D2A1650A3
:1009B000176E186A1D50800A196E17501C5C18506B
:1009C000800A1958D8B01200E0D792929294929669
:1009D000000E956E820E2E6EDE0EE82EFED72E2EA7
:1009E000FCD7010E836E93EC05F0380E836E93EC0A
:1009F00005F00E0E836E93EC05F0060E836E93ECFD
:100A000005F0800E836E93EC05F01200000E926EDE
:100A1000010E936E000E946E000E956E000E966E93
:100A20000F0EC16E070EB46E000E806E000E816E4A
:100A3000000E826E000E836E000E846EF19CF180BB
:100A4000F292F288D08EF28EF29C1200E8CF31F052
:100A5000020E315CD8B003D0306E800E05D0010E8E
:100A6000316404D0306EC00E316E3050010E2F64F0
:100A700006D0110E2F5CD8B002D02F503126315045
:100A800062EC05F01200A7EC05F006EC05F0E5ECD1
:100A900004F093EC05F09FEC05F011EC04F0336EDC
:100AA000010E2F6E3350020E26EC05F0FFD7E8CF73
:100AB0002EF02EC083FF80828094809683EC05F018
:100AC00080861200E8CF2EF02EC083FF80928094A3
:100AD000809683EC05F080861200E8CF13F013C0F7
:100AE00083FF8082809480968BEC05F080861200D4
:100AF000E8CF13F013C083FF8092809480968BEC34
:100B000005F0808612000D0E2D6EFC0EE82EFED72D
:100B10002D2EFCD712000D0E126EFC0EE82EFED705
:100B2000122EFCD7120080928094809683EC05F000
:100B300080861200000EF86E000143EF05F00C0EE7
:100B400062EC05F01200010E78EC05F012001200C4
:020000040020DA
:08000000FFFFFFFFFFFFFFFF00
:020000040030CA
:0E000000040C0E1EFF8181FF0FC00FE00F40A9
:00000001FF
