:020000040000FA
:0400000087EF09F08D
:071000000041540D0A00003D
:101008006AEC09F01CEC09F0010E056E100E066E74
:10101800000E076E35EC09F00009D8B416EF08F099
:1010280018EF08F031EF08F007500524036E000EA2
:101038000620046E03C0F6FF04C0F7FFF86A080034
:10104800F55049EC09F056EC09F00009D8A42FEF47
:1010580008F031EF08F027EF08F0072A050E0764BB
:1010680038EF08F03AEF08F00EEF08F06BEF08F0F1
:101078007BEC08F0086E4F0E0818D8A446EF08F06D
:1010880048EF08F04AEF08F01CEC09F06F0E08185A
:10109800D8A451EF08F053EF08F055EF08F01CEC16
:1010A80009F0610E0818D8A45CEF08F05EEF08F0AC
:1010B80060EF08F01CEC09F0540E0818D8A467EF8C
:1010C80008F069EF08F06BEF08F01CEC09F060EC31
:1010D80009F00009D8A473EF08F075EF08F03CEFA9
:1010E80008F001EC09F008EF08F000EF00F0AB8A17
:1010F8009EAA81EF08F083EF08F07CEF08F0000E5D
:101108000F6EABA48AEF08F08CEF08F099EF08F0A7
:101118000F8202D899EF08F00500FA6E0D50FD6EA7
:101128000E50FE6EFF6AFA501200ABA29EEF08F056
:10113800A0EF08F0ADEF08F00F8402D8ADEF08F08B
:101148000500FA6E0B50FD6E0C50FE6EFF6AFA50E9
:1011580012000F50D8B4B3EF08F0B5EF08F0C1EFA4
:1011680008F002D8C1EF08F00500FA6E0950FD6ECC
:101178000A50FE6EFF6AFA501200AE501200000EBE
:101188008D6E000E8C6E000E896E000E8A6E000E3B
:101198008B6E070E966E92683F0E936E94689568F4
:1011A8000F013B693C0E3A6F3F0E396F070E3C6FDB
:1011B8002F0E386F000E616EF18E1200080EB86E99
:1011C800900EAB6E340EAC6E080EAF6E000EB06EA5
:1011D8001C0E016E130E026E7DEC09F0160E016EE8
:1011E800130E026E78EC09F01E0E016E130E026EDD
:1011F80082EC09F0000E0F6E12008A8E020E026E4B
:10120800040E016EBA0EE82EFED7012EFCD7022E70
:10121800FAD700D08A9E020E026E040E016EBA0E34
:10122800E82EFED7012EFCD7022EFAD700D01200E6
:101238008A8C060E026E130E016EAE0EE82EFED7D5
:10124800012EFCD7022EFAD78A9C060E026E130EC8
:10125800016EAE0EE82EFED7012EFCD7022EFAD76D
:101268001200000E016E9EA83CEF09F03EEF09F057
:1012780047EF09F0ACAA43EF09F045EF09F047EF53
:1012880009F0010E016E01501200016EAB9AAB9885
:101298009EA851EF09F053EF09F04CEF09F001C097
:1012A800ADFF1200ACB25BEF09F05EEF09F0010E82
:1012B8005FEF09F0000E12009EBA65EF09F068EFC3
:1012C80009F0010E69EF09F0000E1200C3EC08F0F6
:1012D80071EC09F0E2EC08F01200520ED36E040E25
:1012E800D26E000E9B6E120001C00BF002C00CF013
:1012F800120001C00DF002C00EF0120001C009F08A
:1013080002C00AF012000F6A000104EF08F0AB985F
:08131800AB8812001200120064
:020000040020DA
:08000000FFFFFFFFFFFFFFFF00
:020000040030CA
:0E000000FF381F3CFFBF85FF0FC00FE00F4011
:00000001FF
