:0400000051EF00F0CC
:0C000800FACF13F0FBCF14F053ED00F022
:10001800D8CF01F0E8CF02F0E0CF03F0FACF04F038
:10002800FBCF05F0E9CF06F0EACF07F0E1CF08F003
:10003800E2CF09F0D9CF0AF0DACF0BF0F3CF0CF00A
:10004800F4CF0DF0F6CF0EF0F7CF0FF0F8CF10F099
:10005800F5CF11F011C0F5FF10C0F8FF0FC0F7FF82
:100068000EC0F6FF0DC0F4FF0CC0F3FF0BC0DAFFA3
:100078000AC0D9FF09C0E2FF08C0E1FF07C0EAFFD4
:1000880006C0E9FF05C0FBFF04C0FAFF03C0E0FF9C
:1000980002C0E8FF01C0D8FF1000BAEF00F0060068
:1000A800E9CF15F0EACF16F0E1CF17F0E2CF18F05C
:1000B800D9CF19F0DACF1AF0F3CF1BF0F4CF1CF038
:1000C800F6CF1DF0F7CF1EF0F8CF1FF0F5CF20F0D8
:1000D800F2B2F2A809D08070820E126EDE0EE82EFF
:1000E800FED7122EFCD7F29220C0F5FF1FC0F8FFF2
:1000F8001EC0F7FF1DC0F6FF1CC0F4FF1BC0F3FFB6
:100108001AC0DAFF19C0D9FF18C0E2FF17C0E1FF13
:1001180016C0EAFF15C0E9FF14C0FBFF13C0FAFFC1
:100128001100000E926E010E936E000E946E000E7A
:10013800956E000E966E0F0EC16E070EB46E000E11
:10014800806E000E816E000E826E000E836E000EB1
:10015800846EF19CF180F292F288D08EF28EF29C3D
:100168001200BDEC00F095EC00F0FFD70001B5EFF0
:0401780000F0120081
:020000040020DA
:08000000FFFFFFFFFFFFFFFF00
:020000040030CA
:0E000000040C0E1EFF8181FF0FC00FE00F40A9
:00000001FF
