:020000040000FA
:04000000B1EF7FF0ED
:10FF62000001DFEF7FF0C0EC7FF0B9EC7FF0120010
:10FF7200520ED36E040ED26E000E9B6E1200000E55
:10FF82008D6E000E8C6E000E896E000E8A6E000E53
:10FF92008B6E070E966E92689368FE0E946E95684D
:10FFA2000F013B69FC0E3A6F3F0E396F070E3C6F33
:10FFB2002F0E386F000E616EF18E1200B4EC7FF0DE
:10FFC2008BB0E6EF7FF0E9EF7FF0010EEAEF7FF012
:10FFD200000EFF0A016E8B500118FE0B01188B6E8A
:10FFE200060E026E130E016EAE0EE82EFED7012E25
:0EFFF200FCD7022EFAD7E1EF7FF000EF00F00F
:020000040020DA
:08000000FFFFFFFFFFFFFFFF00
:020000040030CA
:0E000000FF381F3CFFBF85FF0FC00FE00F4011
:00000001FF
