:0400000051EF00F0CC
:0C000800FACF1FF0FBCF20F00CED0AF047
:10001800D8CF01F0E8CF02F0E0CF03F0FACF04F038
:10002800FBCF05F0E9CF06F0EACF07F0E1CF08F003
:10003800E2CF09F0D9CF0AF0DACF0BF0F3CF0CF00A
:10004800F4CF0DF0F6CF0EF0F7CF0FF0F8CF10F099
:10005800F5CF11F011C0F5FF10C0F8FF0FC0F7FF82
:100068000EC0F6FF0DC0F4FF0CC0F3FF0BC0DAFFA3
:100078000AC0D9FF09C0E2FF08C0E1FF07C0EAFFD4
:1000880006C0E9FF05C0FBFF04C0FAFF03C0E0FF9C
:0E00980002C0E8FF01C0D8FF10006CEF0CF0B2
:100800000054455354455445535445544553544559
:100810002E01000A006400E803102756616C6F7215
:100820003A20252E347520252E3375252500494E76
:100830005445525255505420494E54300000000146
:10084000000E000100019F6F0001970E00010001E2
:100850009E6F7AD100010001A551250AD8B40CD0B1
:1008600093C0D9FF94C0DAFF0001A5C0DFFF0001EB
:100870000001934B942B68D100019B6F000E000187
:1008800000019D6F00019B51000195C0F6FF000122
:1008900096C0F7FF0800F5502E0AD8A432D0000108
:1008A0000001954B962B00019B6F000E000100018B
:1008B000A46F00019B5118D0000195C0F6FF000104
:1008C00096C0F7FF0800F5CF9BF000010001A4518E
:1008D0000A0DF35000019B25D00F00010001A46F09
:1008E00000010001954B962B000195C0F6FF000119
:1008F00096C0F7FF0800F55002EC0CF0D8A063D0CA
:10090000DBD700019B6F000E00010001A46F000106
:100910009B5159D000010001A451D8B431D000013D
:10092000A4C09BF000019C6B9BBF9C0700010001D1
:10093000A25100019B5D00010001A35100019C59DF
:10094000D8B01ED000010001A45100010001A26F27
:100950000001A36B0001A2BFA30712D0A0C0D9FF62
:10096000A1C0DAFF93C0E1FF94C0E2FFDFCFE7FF51
:1009700000010001A04BA12B00010001934B942B1F
:1009800000010001A207D8A0A3070001A229D8B442
:10099000A329D8B4D9D0E2D70001000E000100018C
:1009A000A16F0001A50E00010001A06F000E000163
:1009B0000001A36F010E0001A26FACD7C00E0001B1
:1009C00000019D1317D0000195C0F6FF000196C0ED
:1009D000F7FF00010001954B962B08000001F5CFB1
:1009E000A5F00001A551000AD8B4BFD0750AD8B44B
:1009F000E5D7D2D79EC0D9FF9FC0DAFF0001DECF76
:100A0000A0F00001DDCFA1F0020E000100019E2741
:100A1000000E00019F2300010001A46709D000011E
:100A20000001A151A011D8A403D000010001A42B02
:100A300000019B6F010E00010001A56F00019B5199
:100A400000010001A551050AD8B420D00001000121
:100A5000A551020D110EF324F66E080EF420F76E68
:100A60000900F5CF9BF00900F5CF9CF000019B51E8
:100A700000010001A05D00019C5100010001A1598D
:100A8000D8A004D000010001A52BDAD70001000195
:100A9000A551800A00019B6F00010001A451800A4A
:100AA00000019B5DD8B003D0A4C0A5F046D00001E2
:100AB0000001A451800A00019B6F00010001A551B3
:100AC000800A00019B5DD8B038D0A5C0A4F035D015
:100AD00000010001A451020D110EF324F66E080E60
:100AE000F420F76E0900F5CF2FF00A00F5CF30F0B3
:100AF000A0C02DF0A1C02EF0D6EC0AF02DC063F0FE
:100B00002EC064F0000E00010001666F0A0E0001A5
:100B1000656F99EC0AF0000100016351300F00018C
:100B20000001A56F93C0D9FF94C0DAFF0001A5C0F2
:100B3000DFFF00010001934B942B00010001A4078B
:100B40000001A429D8A4C4D7000195C0F6FF000174
:100B500096C0F7FF00010001954B962B080000019D
:100B6000F5CFA5F00001A56775D693C0D9FF94C055
:100B7000DAFF000EDF6E1200000177C07BF000018B
:100B80007C6B7D6B00010001763500017B3701E352
:100B90007C8100017B51000100017E6F00017E67B6
:100BA00001D015D000017AC07BF000017C6B7D6B19
:100BB00000010001793500017B3701E37C810001F0
:100BC0007B5100010001836F000183670DD0000E8F
:100BD00000010001756F000E00010001766F000E2C
:100BE00000010001776FA7D00001000183517B0F46
:100BF000000100017E2777C083F0000100017A51D7
:100C000000010001831B800E000100018317000119
:100C10000001768F00010001798FFF0E00010001B5
:100C20007817FF0E000100017917000E0001000186
:100C30007A17000E000100017F6F000E0001000115
:100C4000806F000E00010001816F00017B6F070EB5
:100C500000010001826F00017B510001000175A1BC
:100C600012D0000100017851000100017F2700012E
:100C700000017951000100018023000100017A5137
:100C80000001000181230001D890000177330001A9
:100C90007633000175330001D890000178370001E8
:100CA000793700017A3700010001822FD6D7000181
:100CB0007B6F090E00010001826F00017B51000172
:100CC000000175A112D0000100017851000100015E
:100CD0007F270001000179510001000180230001FC
:100CE00000017A510001000181230001D890000128
:100CF000773300017633000175330001D89000018D
:100D000081330001803300017F3300010001822F15
:100D1000D6D77FC02DF080C02EF081C02FF07EC0CE
:100D200030F083C031F05FEC09F02DC075F02EC0BB
:100D300076F02FC077F01200000E00010001BD6FA9
:100D4000000E0001BC6F000E00010001BB6F000E21
:100D50000001BA6F84EC0CF00FEC0BF075EC0BF0AB
:100D60005FEC0CF076EC0CF0BBEC09F00001A66F28
:100D7000010E2F6E0001A651020EB3EC0BF082ECB7
:100D80000CF066EC0CF00009D8A4FBD771EC0CF069
:100D90002DC0BCF02EC0BDF000010001BB51000110
:100DA0000001BD1906E100010001BA510001000176
:100DB000BC19D8B491D07AEC0CF00001A66F010EEA
:100DC0002F6E0001A651010EB3EC0BF00001000ED6
:100DD0002E6E0001AA0E2D6E000E306E000E2F6ECC
:100DE000000E326E100E316ED0EC0BF00001000ED2
:100DF00000010001946F0001AA0E00010001936F31
:100E0000080E00010001966F1B0E00010001956F96
:100E1000BCC097F0BDC098F0000E00010001786FD3
:100E2000C80E00010001796F420E000100017A6FC7
:100E3000000E00010001696F800E000100016A6F61
:100E4000440E000100016B6FBCC063F0BDC064F0D4
:100E5000EAEC0BF063C066F064C067F065C068F050
:100E600075EC07F066C075F067C076F068C077F083
:100E7000BCEC05F075C084F076C085F077C086F0D4
:100E800042EC08F084C0A6F085C0A7F086C0A8F0A8
:100E900087C0A9F0A6C099F0A7C09AF01FEC04F093
:100EA0000001000E00010001616F0001AA0E0001A7
:100EB0000001606F0001000E2E6E0001AA0E2D6E63
:100EC00096EC0BF02D5000010001626FFBEC08F076
:100ED000BCC0BAF0BDC0BBF0820E0001A66FDE0E32
:100EE000E82EFED7A62FFCD74AD7000168C06CF0C9
:100EF00000016D6B6E6B00010001673500016C37FE
:100F000001E36D8100016C5100010001736F00016C
:100F1000736701D015D000016BC06CF000016D6BE0
:100F20006E6B000100016A3500016C3701E36D81D1
:100F300000016C5100010001746F000174670DD055
:100F4000000E00010001666F000E00010001676FD6
:100F5000000E00010001686F94D0000E0001000136
:100F6000706F000E00010001716F000E00010001A2
:100F7000726F000100017451890F00010001735F5D
:100F800068C074F0000100016B5100010001741B86
:100F9000800E00010001741700010001678FFF0E31
:100FA000000100016617FF0E000100016717000E27
:100FB000000100016817000100016A8FFF0E0001A7
:100FC00000016917FF0E000100016A17000E000101
:100FD00000016B1700016C6F180E000100016F6FAC
:100FE00000016C510001D890000170370001713789
:100FF0000001723700010001695100010001665DC6
:10100000000100016A51000100016759000100015F
:101010006B51000100016859D8A015D000010001F2
:10102000695100010001665F000100016A51000181
:101030000001675B000100016B5100010001685B6A
:101040000001000170810001D890000166370001A5
:10105000673700016837000100016F2FC3D770C0E8
:101060002DF071C02EF072C02FF073C030F074C03C
:1010700031F05FEC09F02DC066F02EC067F02FC094
:1010800068F01200000186C088F00001896B8A6B4D
:101090000001000185350001883701E389810001E5
:1010A000885100010001926F0001926701D066D063
:1010B000170E0001886F000184C089F0000185C00F
:1010C0008AF0000186C08BF00001882900018C6F36
:1010D00005D00001D8908B338A33893300018C2FDF
:1010E000F8D700018951000100018D6F0001000156
:1010F000858FFF0E000100018417FF0E0001000123
:101100008517000E000100018617000100018451BF
:10111000000100018E6F00010001855100018F6FF9
:10112000000186510001906F0001916B8E0E00014D
:101130000001925F0001000192AF1BD0000100018D
:101140009251800A0001886FF10E800A0001885DCB
:10115000D8A014D00001D890000191330001903341
:1011600000018F3300018E3300010001923FF2D75E
:1011700024D0170E0001000192651BD0000E000163
:101180000001846F000E0001856F000E0001866F64
:10119000000E0001876F2ED00001D89000018E371D
:1011A00000018F37000190370001913700010001E5
:1011B0009207000100019267EFD7000100018D51F5
:1011C000D8B410D000010001911F0001901F000150
:1011D0008F1F00018E6D000E00018F2300019023F0
:1011E000000191238EC084F08FC085F090C086F0FE
:1011F00091C087F01200000E00010001696F000E1F
:101200000001686F110E00010001625DD8A008D0D6
:101210000001636F100E00010001626F0001635155
:101220000001000162C066F000010001676B66C04A
:1012300062F0000E00010001696F000E0001686F8E
:1012400026D0000160C063F0000161C064F00001BD
:10125000000168510001632700010001695100018C
:10126000642363C0F6FF64C0F7FFF86A070EF764F3
:1012700003D00800F55005D0F6CFE9FFF7CFEAFF1D
:10128000EF5023EC0CF000010001684B692B0001CA
:10129000000162510001636F646B0001000169513C
:1012A000800A0001656F635100010001685D000163
:1012B0006451800A00016559D8B01200C2D730507D
:1012C000D8B405D02D502E102F10D8A40CD0000E5D
:1012D0002D6E000E2E6E000E2F6E4CD0302AD89040
:1012E0002F322E322D32000E2D140001606F000EB1
:1012F0002E140001616FFE0E2F140001626F0001B9
:10130000605161116211D8B40CD0E8D7302A010EB7
:101310002D26000E2E22000E2F22D8902F322E3294
:101320002D32000E2D140001606F000E2E140001EE
:10133000616FFF0E2F140001626F00016051611197
:101340006211D8B406D0E2D73006D8902D362E36AA
:101350002F362EAEF9D730A02E9ED8903032305096
:101360002F123150D8A42F8E2DC02DF02EC02EF06C
:101370002FC02FF01200010EF66E080EF76E20EE51
:1013800060F0100E0900F5CFDEFFE82EFBD7000E4F
:1013900000010001716F010E0001706F000100017A
:1013A0007151800A800F030ED8B4705DD8B033D06D
:1013B000326E010E2F6E3250000100017051B3ECFD
:1013C0000BF0000E00010001736F000E0001726F40
:1013D000000100017351800A800F100ED8B4725DB5
:1013E000D8B014D00001600E000100017225D96E42
:1013F0000001000E000100017321DA6EDF5023ECC2
:101400000CF000010001724B732BE2D700010001C8
:10141000704B712BC3D712000600E9CF21F0EACF41
:1014200022F0E1CF23F0E2CF24F0D9CF25F0DACFBC
:1014300026F0F3CF27F0F4CF28F0F6CF29F0F7CF3E
:101440002AF0F8CF2BF0F5CF2CF0F2B2F2A814D09E
:101450007EEC0CF0080E156E2E0E146E1E6E0E0E27
:10146000166E1E5059EC0AF0820E1E6EDE0EE82E2D
:10147000FED71E2EFCD7F2922CC0F5FF2BC0F8FF32
:101480002AC0F7FF29C0F6FF28C0F4FF27C0F3FFEA
:1014900026C0DAFF25C0D9FF24C0E2FF23C0E1FF48
:1014A00022C0EAFF21C0E9FF20C0FBFF1FC0FAFFF6
:1014B0001100000E1D6E000E1C6E110E165CD8A0E1
:1014C00004D0176E100E166E175016C01AF01B6A55
:1014D0001AC016F0000E1D6E000E1C6E1CD014C03B
:1014E00017F015C018F01C5017261D50182217C0F1
:1014F000F6FF18C0F7FFF86A070EF76403D008007C
:10150000F55005D0F6CFE9FFF7CFEAFFEF5039EC01
:101510000CF01C4A1D2A1650176E186A1D50800ABE
:10152000196E17501C5C1850800A1958D8B0120058
:10153000D6D70001000166516511D8B432D0326EA1
:10154000010E336E325007D0000100010001D89027
:1015500065376637332A0001000166AFF5D7000111
:101560000001655100010001635D00010001665149
:10157000000100016459D8A00CD0000100016551A0
:1015800000010001635F00010001665100010001DC
:10159000645B000100010001D89066336533332E8F
:1015A000DED763C063F064C064F01200000E000177
:1015B0000001616F000E0001606F30502F10D8B431
:1015C00029D0316E010E00010001626F315006D04A
:1015D000D8902F36303600010001622B30AEF8D79C
:1015E000000100010001D890603761372F502D5C59
:1015F00030502E58D8A007D02F502D5E30502E5A84
:10160000000100016081D89030322F3200010001CA
:10161000622FE6D760C02DF061C02EF01200010EDF
:10162000926E010E936E000E946E000E956E000E7B
:10163000966E0F0EC16E070EB46E000E806E000E19
:10164000816E000E826E000E836E000E846EF19C21
:10165000F180F292F288D08EF28EF29C326E040EFD
:101660002D6E3250336EFE0E2E6E3350D30E45EC7F
:101670000BF0870E17EC0CF0070E326E7D0EE82E85
:10168000FED7322EFCD700F01200E8CF31F0000E6A
:10169000C26E000EC06ED8902D303C0BC26E2DC0B5
:1016A0002FF02F3AF00E2F16300E2F162E500F0B54
:1016B0002F10C16E31C02FF0D8902F36D8902F3612
:1016C000380E2F1631C030F0303A0F0E3016070E9C
:1016D00030163150800B30102F10C06E2DAE03D05D
:1016E0009E9C9D8CF28CC280120092929294929653
:1016F000000E956E820E2E6EDE0EE82EFED72E2E7A
:10170000FCD7010E836E5FEC0CF0380E836E5FEC3D
:101710000CF00E0E836E5FEC0CF0060E836E5FEC29
:101720000CF0800E836E5FEC0CF012002EC032F0D5
:101730002DC031F002D0314A322A31C0D9FF32C037
:10174000DAFFDF50D8A4F7D72DC02FF02EC030F02D
:101750002F1E301E2F4A302A31502F242D6E32502A
:1017600030202E6E1200E8CF31F0020E315CD8B07E
:1017700003D0306E800E05D0010E316404D0306E7F
:10178000C00E316E3050010E2F6406D0110E2F5C4A
:10179000D8B002D02F50312631502EEC0CF0120070
:1017A00000012EC061F000012DC060F00AD060C0C1
:1017B000D9FF61C0DAFF2FC0DFFF00010001604BDD
:1017C000612B3106D8A032063128D8B43228D8B4DB
:1017D0001200EDD7000163C02DF0000164C02EF0AF
:1017E0002F6A326E8E0E306E3250336E000E316EB6
:1017F00033505FEC09F02DC063F02EC064F02FC0B1
:1018000065F01200E8CF2FF02D6E000E2E6E2D50D9
:101810003A0E2F5CD8B007D02F0E2F6404D02D6E57
:10182000010E2E6E2D502EC02DF02D301200E8CF5F
:101830002EF0C2CF2DF0C30E2D16D8902E303C0BBB
:101840002D10C26E1200E8CF2EF02EC083FF8082D2
:10185000809480964FEC0CF080861200E8CF2EF03A
:101860002EC083FF8092809480964FEC0CF080868F
:101870001200E8CF13F013C083FF8082809480961B
:1018800057EC0CF080861200E8CF13F013C083FFF2
:1018900080928094809657EC0CF0808612000D0E9A
:1018A0002D6EFC0EE82EFED72D2EFCD712000D0E4D
:1018B000126EFC0EE82EFED7122EFCD7120080927C
:1018C000809480964FEC0CF080861200C2A202D069
:1018D000010E01D0000E1200000EF86E00019CEF08
:1018E00006F0C4502E6EC3502D6E12000C0E2EEC5E
:1018F0000CF01200010E2EEC0CF01200010E44EC64
:0A1900000CF01200C2821200120067
:020000040020DA
:08000000FFFFFFFFFFFFFFFF00
:020000040030CA
:0E000000040C0E1EFF8181FF0FC00FE00F40A9
:00000001FF
